:020000040800F2
:104000000050002035B30008014A0008034A0008A8
:10401000054A0008074A0008094A00080000000095
:104020000000000000000000000000000B4A000833
:104030000D4A0008000000000F4A0008114A00085D
:104040007DB300087DB300087DB300087DB3000890
:104050007DB300087DB300087DB300087DB3000880
:104060007DB300087DB300087DB300087DB3000870
:10407000154A00087DB300087DB30008214A0008F6
:104080007DB300087DB300087DB300087DB3000850
:104090002D4A00087DB300087DB300087DB30008F9
:1040A0007DB300087DB300087DB300087DB3000830
:1040B0007DB300087DB30008394A00087DB30008CD
:1040C0007DB300087DB300087DB300084D4A0008A9
:1040D000594A00087DB300087DB300087DB300088D
:1040E0007DB300087DB300087DB300080000000028
:1040F00000000000000000000000000000000000C0
:0C41000000000000000000005FF808F163
:10410C00002301461A46184600F004BA38B5084B8D
:10411C00084D5B1B9C1007D0043B1D44013C55F81B
:10412C0004399847002CF9D1BDE8384007F032B972
:10413C0010B800080CB8000870B50D4E0D4D761B6C
:10414C00B61006D0002455F8043B01349847A6421B
:10415C00F9D1094E094D07F017F9761BB61006D0A8
:10416C00002455F8043B01349847A642F9D170BDA0
:10417C0000B8000800B800080CB8000800B8000827
:10418C00032A10B516D940EA010C1CF0030F0446A3
:10419C000B4622D119462046D1F800E0D0F800C0D9
:1041AC000433F44504F1040417D1043A032A2046DD
:1041BC001946EFD8541EA2B100F1FF3C013901E0C1
:1041CC00C3180CD01CF801EF11F8012FA4EB0C0351
:1041DC009645F5D0AEEB020010BD541EECE7184628
:1041EC0010BD104610BD00BF844641EA000313F019
:1041FC00030349D1403A23D30B6803604B684360F7
:10420C008B688360CB68C3600B6903614B69436146
:10421C008B698361CB69C3610B6A03624B6A43622E
:10422C008B6A8362CB6AC3620B6B03634B6B436316
:10423C008B6B8363CB6BC36340304031403ADBD232
:10424C0030320BD30B6803604B6843608B68836020
:10425C00CB68C36010301031103AF3D20C3205D356
:10426C0051F8043B40F8043B043AF9D2043208D02C
:10427C00D2071CBF11F8013B00F8013B01D30B889E
:10428C0003806046704700BF082A13D38B07B1D058
:10429C0010F00303AED0C3F10403D21ADB071CBF2A
:1042AC0011F8013B00F8013BA4D331F8023B20F894
:1042BC00023B9FE7043AD9D3013A11F8013B00F8CD
:1042CC00013BF9D20B7803704B7843708B78837079
:1042DC006046704788420DD98B1883420AD900EB8F
:1042EC00020CBAB1624613F801CD994202F801CD25
:1042FC00F9D170470F2A0ED8034602F1FF3C4AB1A0
:10430C000CF1010C013B8C4411F8012B614503F8B5
:10431C00012FF9D1704740EA01039B074FD1A2F15D
:10432C00100370B501F1200C23F00F0501F1100EF4
:10433C0000F11004AC441B095EF8105C0EF1100E79
:10434C0044F8105C5EF81C5C103444F81C5C5EF89D
:10435C00185C44F8185C5EF8145CE64544F8145C90
:10436C00EAD1013312F00C0F01EB031102F00F0430
:10437C0000EB031327D08E46043C24F003064FEACF
:10438C00940C1E441C1F5EF8045B44F8045FB4429A
:10439C00F9D10CF1010402F0030203EB840301EBED
:1043AC00840102F1FF3C4AB10CF1010C013B8C443D
:1043BC0011F8012B614503F8012FF9D170BD0346AB
:1043CC0002F1FF3C9CE72246EBE700BF830730B5C8
:1043DC0048D0541E002A3FD00346CAB201E0013C2B
:1043EC003AD303F8012B9D07F9D1032C2DD9CDB26B
:1043FC0045EA05250F2C45EA054536D9A4F11002EE
:10440C0022F00F0C03F1200EE6444FEA121C03F1CC
:10441C00100242E9045542E9025510327245F8D1B6
:10442C000CF1010214F00C0F03EB021204F00F0C50
:10443C0013D0ACF1040323F003030433134442F808
:10444C00045B9342FBD10CF003042CB1CAB21C44A4
:10445C0003F8012B9C42FBD130BD64461346002C63
:10446C00F4D1F9E703461446BFE71A46A446E0E741
:10447C000022024B1B68C3E92A027047000000208F
:10448C000A4B10B40A4A1C680A49D4E92A0300FBF7
:10449C0002F201FB0322A0FB0101431C42EB0100D1
:1044AC00C4E92A3020F0004010BC70470000002006
:1044BC002DF451582D7F954C20F0030110F0030082
:1044CC00C0F1000051F8043B00F1040C4FEACC0C95
:1044DC006FF000021CBF22FA0CF213434FF0010CD8
:1044EC004CEA0C2C4CEA0C4CA3EB0C0222EA030217
:1044FC0012EACC1204BF51F8043B0430F4D0C2F1E0
:10450C00000102EA0102B2FA82F2C2F11F0200EBD0
:10451C00D20070472DE9F8431D4D06462868984691
:10452C000F46914600F042F81A4B1B68D3F84841ED
:10453C001CB3286865681F2D24DC4EB96B1C023532
:10454C00636044F8257000F039F80020BDE8F8836A
:10455C00012304EB8501C1F88890D4F88821AB4085
:10456C001A43022EC4F88821C1F80881E6D1D4F888
:10457C008C211343C4F88C31E0E703F5A674C3F81F
:10458C004841D6E700F01AF84FF0FF30DEE700BFE5
:10459C0030040020ACB30008704700BF704700BF68
:1045AC00704700BF704700BF704700BF704700BF27
:1045BC000120704701207047704700BF704700BF53
:1045CC0010B5054C237833B9044B13B10448AFF341
:1045DC0000800123237010BDB107002000000000F3
:1045EC0094B3000808B5034B1BB103490348AFF360
:1045FC00008008BD00000000B407002094B3000840
:10460C000E4B07B55A69032142F001025A615B69EE
:10461C00002203F0010301930C20019B00F03CFBF2
:10462C000C2000F069FB002203210F2000F034FB6A
:10463C000F2003B05DF804EB00F05EBB00100240ED
:10464C0010222DE9F0410025012688B0334C0DEBEA
:10465C0002000021FFF7BAFEA369314F43F020039B
:10466C00A361A369002203F020030093009BA369BC
:10467C00384643F00403A361A369182103F0040333
:10468C000193019BA3694FF0020843F00803A36157
:10469C00A36903F008030293029B00F08DFE3846D9
:1046AC0004A9CDE90465069500F0AEFD1823384643
:1046BC004FF4805704A9CDE904360695CDF81C803B
:1046CC0000F0A2FDA3692A4643F00403A361A36989
:1046DC00A4F5843403F00403204603934FF4805173
:1046EC00039B00F069FE204604A9CDE90476CDE9D0
:1046FC00068800F089FD2A463946204600F05CFE0B
:10470C00412000F0A5FA32463946204600F054FE0E
:10471C00412000F09DFA08B0BDE8F0810010024085
:10472C00000C014030B595B0142200210CA8FFF705
:10473C004DFE1422102500210DEB0200FFF746FE62
:10474C002A46002101A8FFF741FE02244FF48033D2
:10475C000122CDE91143CDE90A234FF4E0130AA855
:10476C000E92139301F012FD08B172B6FEE70F23FF
:10477C00CDE905344FF480630790CDE9083021462C
:10478C0005A801F0D9FE08B172B6FEE7049001A8A5
:10479C00019501F08DFF08B172B6FEE715B030BD82
:1047AC0008B501F087FC00F02FFAFFF7BBFFFFF70D
:1047BC0047FFFFF725FF00F00DF800F055F900F06A
:1047CC00A7F906F0E1F900F02BF806F00DFDFEE775
:1047DC0072B6FEE708B54FF482730F480F4A4FF4D8
:1047EC008061C0E90023002302224FF4007CC0E961
:1047FC000423C0E902131822C0E9083383620A2398
:10480C00C0E906C2C36202F033F818B1BDE8084033
:10481C00FFF7DEBF08BD00BFAC0800200030014030
:10482C0008B54FF482730E480E4A0121C0E90023EB
:10483C004FF400720023C0E905120822C0E90233CC
:10484C00C0E90723C0E9093303610A23C36202F0FC
:10485C000FF818B1BDE80840FFF7BABF08BD00BF9C
:10486C00540800200038004070B51026054688B06A
:10487C00324600210DEB0600FFF7A8FD2B68434ADA
:10488C00934245D1424B20219A69424842F48052CE
:10489C009A619A69404C02F480520092009A9A698B
:1048AC0042F004029A619B6903F004030193019B9B
:1048BC000223CDE9041303230DEB06010793002615
:1048CC0000F0A2FC4023334804A9CDE90436069637
:1048DC0000F09AFC314B2046C4E900368023C4E931
:1048EC0003364FF48053C4E90566A660E36100F01B
:1048FC0025FA08B1FFF76CFF232000220321EC649A
:10490C00656200F0C9F9232000F0F6F908B070BD1B
:10491C00234A9342FAD11E4B2248DA6904A942F485
:10492C008042DA61DA69204C02F480420292029AE7
:10493C009A6942F008029A619B694FF4204203F095
:10494C0008030393039B0223CDE90423032307935A
:10495C0000F05AFC154B8022C4E900360023C4E950
:10496C000232C4E90433A3614FF480532046E3615F
:10497C0000F0E4F908B1FFF72BFF242000220321FB
:10498C00AC64656200F088F92420BDE7003001407A
:10499C000010024000080140100800201C000240DA
:1049AC0000380040000C0140CC07002058000240A9
:1049BC000E4B82B09A6942F001029A619A6902F038
:1049CC0001020092009ADA6942F08052DA61DB69E6
:1049DC00074A03F080530193019B536823F0E06373
:1049EC0043F00073536002B0704700BF00100240E8
:1049FC0000000140FEE7FEE7FEE7FEE7FEE770473A
:104A0C007047704700F012B9014800F045BA00BF7A
:104A1C0010080020014800F03FBA00BFCC0700206E
:104A2C00014800F06FBD00BF1815002008B506F056
:104A3C00EBFBBDE80840014802F0CDB804090020AA
:104A4C00014802F01FB800BFAC080020014802F07A
:104A5C0019B800BF54080020014B024A9A607047F5
:104A6C0000ED00E0004000087FB51022002102A8F4
:104A7C00FFF7ACFC4722144814490023C0E900128C
:104A8C0040F2E732CDE90033C0E903238360836150
:104A9C0002F06EF908B1FFF79BFE4FF480530A4801
:104AAC0002A9029302F09AF908B1FFF791FE0023D4
:104ABC0069460548CDE9003302F022FA08B1FFF748
:104ACC0087FE07B05DF804FB0409002000080040D5
:104ADC0007B50E4B02689A4215D103F50233DA6919
:104AEC001E2042F00402DA610022DB69114603F059
:104AFC0004030193019B00F0CFF81E2003B05DF876
:104B0C0004EB00F0F9B803B05DF804FB00080040BA
:104B1C0008B54FF4E1330A480A4AC0E900230023E0
:104B2C000C22C0E90233C0E905230361C36102F022
:104B3C0051FA18B1BDE80840FFF74ABE08BD00BFE6
:104B4C004C0900200038014010B5044686B01022F4
:104B5C00002102A8FFF73AFC2268174B9A4228D191
:104B6C0003F558439A69154842F480429A619A6950
:104B7C0002A902F480420092009A9A6942F004025F
:104B8C009A619B694FF4007203F004030193019B3B
:104B9C000223CDE902230323059300F035FB4FF4E8
:104BAC00806100230548CDE9021302A9049300F0AB
:104BBC002BFB06B010BD00BF0038014000080140BF
:104BCC0038B50E4B05461A784FF47A73B3FBF2F3F3
:104BDC000B4A1068B0FBF3F000F09CF8044658B98F
:104BEC000F2D09D8024629464FF0FF3000F054F83B
:104BFC002046044B1D6038BD0120FCE73804002022
:104C0C00340400203C040020074A08B51368032034
:104C1C0043F01003136000F02DF80020FFF7D0FFD5
:104C2C00FFF7C6FE002008BD00200240034A044BDB
:104C3C0011681B780B441360704700BF900900206B
:104C4C0038040020014B1868704700BF9009002001
:104C5C0038B50446FFF7F6FF0546631C1EBF044B30
:104C6C001B78E418FFF7EEFF431BA342FAD338BDC1
:104C7C003804002007490302CA6803F4E06322F4F5
:104C8C00E0621204120C134343F0BF6343F400338D
:104C9C00CB60704700ED00E0154B30B5DC68C4F319
:104CAC000224C4F10703251D042B28BF0423062D61
:104CBC004FF0FF3594BF0024033C05FA03F321EABF
:104CCC000303A54022EA0502A340002843EA02039D
:104CDC00ACBF00F16040074A4FEA0313DBB2ABBF35
:104CEC0000F5614000F00F0080F80033135430BD24
:104CFC0000ED00E014ED00E0002807DB0123410982
:104D0C00034A00F01F00834042F82130704700BF77
:104D1C0000E100E00138B0F1807F0BD24FF0E023CE
:104D2C00F021054A586182F823100020072298616F
:104D3C001A6170470120704700ED00E0034610B582
:104D4C0018B314210068124A0244B2FBF1F292002B
:104D5C001A64104A0168DA63D3E901242243DC683F
:104D6C0021F47F5122431C6921F0300122435C69FC
:104D7C0022439C692243DC6922430A4302600020DF
:104D8C004FF4807298631A8410BD0120FCE700BFB9
:104D9C00F8FFFDBF00000240F0B590F82040012C58
:104DAC0033D0012490F8215080F82040A5424FF0D8
:104DBC00000428D102268463046880F821602668E8
:104DCC0026F001062660D0E90F67BD407560636070
:104DDC004368102BC36A0BBFA260A160E160E26064
:104DEC004BB1236843F00E0300202360236843F08B
:104DFC0001032360F0BD236823F0040323602368C0
:104E0C0043F00A03F0E780F820400220F2E70000AC
:104E1C0008B590F82130022B03D0042383630120C2
:104E2C0008BD03681A6822F00E021A601A6822F094
:104E3C0001021A60164A93421CD0143293421BD0C2
:104E4C00143293421AD0143293421AD01432934231
:104E5C001AD01432934214BF4FF080734FF4801366
:104E6C000C4A53604FF480730384436B03B198472F
:104E7C000020D5E70123F3E71023F1E74FF480730B
:104E8C00EEE74FF48053EBE74FF48033E8E700BFD5
:104E9C00080002400000024070B40425C66B026C8E
:104EAC003468036895402542196832D04D0730D5D7
:104EBC001A6896065EBF1A6822F004021A603D4A10
:104ECC00934219D01432934218D01432934217D013
:104EDC001432934217D01432934217D014329342A7
:104EEC0014BF4FF080634FF48003334A5360C36A9E
:104EFC00002B5CD070BC18470423F6E74023F4E782
:104F0C004FF48063F1E74FF48043EEE74FF48023D6
:104F1C00EBE702259540254235D08D0733D51A682D
:104F2C00940606D41A6822F00A021A60012280F84C
:104F3C002120204A934219D01432934218D01432B3
:104F4C00934217D01432934217D01432934217D095
:104F5C001432934214BF4FF000734FF40013164AEF
:104F6C005360002380F82030836AC1E70223F6E700
:104F7C002023F4E74FF40073F1E74FF40053EEE70E
:104F8C004FF40033EBE70825954025420FD0090775
:104F9C000DD5196821F00E011960012303FA02F2F4
:104FAC00726083634FF480730384036BA0E770BC5F
:104FBC00704700BF0800024000000240114AD3684D
:104FCC0013F0100305D01049CB6943F00203CB61F9
:104FDC001023D268500706D50B4943F00403CA6965
:104FEC0042F00102CA61074AD169C90708D50648CF
:104FFC00C16941F00401C161D16921F00101D161A4
:10500C00D36070470020024098090020064B1869B5
:10501C0010F0800007D0054A5A6002F188325A60BD
:10502C001869C0F3C0107047002002402301674587
:10503C00034A0020136943F080031361704700BFDB
:10504C000020024070B50546FFF7FCFD0646114CEA
:10505C00E368D80712D4E368990644BF2023E360C1
:10506C00E368DA0606D4E369DB0703D4E06810F0E2
:10507C00040007D0FFF7A2FF012003E06B1CE7D070
:10508C000DB9032070BDFFF7DDFD801BA842DFD9F1
:10509C00F7E700BF002002402DE9F84FDFF894A09D
:1050AC001F469AF818300546012B884691463FD08A
:1050BC0001234CF250308AF81830FFF7C3FF90BB35
:1050CC00012D03D0022D14BF0425022500263346E2
:1050DC00DFF864B03401C4F12001A4F1200207FA16
:1050EC0001F129FA04F4CAF81C300C4327FA02F235
:1050FC001443DBF81020A4B242F00102CBF81020CC
:10510C004CF2503028F81640FFF79CFFDBF81020CB
:10511C0022F00102CBF8102028B90136F2B29542E8
:10512C004FF00003D6D800238AF81830BDE8F88F6A
:10513C000220FBE798090020002002400022064BC9
:10514C00DA61064B1A6942F002021A6158611A6957
:10515C0042F040021A61704798090020002002407A
:10516C002DE9F041264F05463B7E8846012B44D065
:10517C0001243C7603684CF25030022B1AD1FFF715
:10518C0061FF20B1012000233B76BDE8F0811D4C6E
:10519C00F86123694CF2503043F004032361236916
:1051AC0043F040032361FFF74DFF236923F0040311
:1051BC002361E8E7FFF746FF0028E3D14FF0FF3308
:1051CC00C8F800302046AE680E4CD5E9023203EB2D
:1051DC008223B342D7D93046FFF7B0FF4CF25030A0
:1051EC00FFF730FF236923F00203236110B1C8F8E5
:1051FC000060C8E706F58066E7E70220C5E700BF58
:10520C0098090020002002402DE9F74F0024264683
:10521C00DFF888C1624BDFF88CE1DFF88C810A681B
:10522C0032FA06F502D103B0BDE8F08F0127B74082
:10523C0002EA070537EA02027AD14A68032A07D83C
:10524C00013A022A00F28380DFE802F092979D0077
:10525C00122A00F095806DD8112A00F08B80FF2D5A
:10526C0098BF81464FF00F0B88BF00F104094FEA3D
:10527C008602D9F8007088BF203A0BFA02FA27EAA6
:10528C000A0704FA02F21743C9F80070D1F8049027
:10529C0019F0805F4CD0DCF8182026F0030742F0A0
:1052AC000102CCF81820DCF8182007F1804702F036
:1052BC000102019207F5803706F0030A019A4FEAC2
:1052CC008A0ABA680BFA0AFB22EA0B0B374A90429D
:1052DC005DD002F5806290425BD002F58062904214
:1052EC0059D002F58062904214BF0422032202FAC4
:1052FC000AF242EA0B02BA601A6819F4803F14BF32
:10530C002A43AA431A605A6819F4003F14BF2A436F
:10531C00AA435A609A6819F4801F14BF2A43AA43FF
:10532C009A60DA6819F4001F14BF2A43AA43DA60A2
:10533C00013674E7DFF878904A4508D010D8A9F503
:10534C0080194A4503D0724501D0424587D18A68FD
:10535C00DAB1012A4FF008040CBF076147617EE700
:10536C00DFF850904A45F2D009F580394A45EDE70F
:10537C00CC6874E7CC68043471E7CC6808346EE709
:10538C00CC680C346BE7002469E7042467E700223F
:10539C00ADE70122ABE70222A9E700BF00100240F3
:1053AC000004014000002110000011100008014011
:1053BC0000002210000031100AB10161704709048D
:1053CC00FBE7F0B5044687B010B390F8A93203F0B0
:1053DC00FF021BB980F8A82205F086FC03232546A2
:1053EC006E4684F8A93255F8100B01F031FE0FCD42
:1053FC000FC62B6825463360271D55F8100B97E810
:10540C000E0001F015FE064630B1022384F8A932D5
:10541C000125284607B0F0BD0146206801F022FEA8
:10542C0031464FF0010E28260846D4F804C0CAB203
:10543C00944501F101011DD8002128260A46C8B265
:10544C00844501F1010122D80FCD6E460FC62B68A1
:10545C003360206897E80E0001F006FE0546002830
:10546C00D3D1012384F82400206884F8A93202F0F7
:10547C0097F8CEE706FB0243C3E90E0083F829E058
:10548C0083F82820DA8683F82B001864CFE706FB14
:10549C000043C3E95E2283F8692183F8680183F82D
:1054AC006B21C3F88021CAE738B590F8A8320446BE
:1054BC00012B10D0012580F8A852006801F0BFFD27
:1054CC002946204605F00DFD206802F067F8002003
:1054DC0084F8A80238BD0220FCE710B590F8A82289
:1054EC000446012A0BD0012280F8241080F8A8224F
:1054FC00006802F04DF8002084F8A80210BD0220CC
:10550C00FCE700002DE9F04F044685B0006802F07E
:10551C0049F8000408D52827DFF808832068B0F87C
:10552C0044301D0400F1C180206802F03BF84105B5
:10553C000FD522682046B2F8443023F480631B0454
:10554C001B0CA2F8443005F00AFC00212046FFF7A2
:10555C00C4FF206802F026F8410408D52268B2F88E
:10556C00443023F480431B041B0CA2F84430206805
:10557C0002F018F8820408D52268B2F8443023F4FB
:10558C0000531B041B0CA2F84430206802F00AF8EC
:10559C00C3041CD522682046B2F8403023F0040323
:1055AC001B041B0CA2F84030B2F8403023F0080367
:1055BC001B041B0CA2F8403005F0F4FB2268B2F877
:1055CC00443023F480531B041B0CA2F84430206895
:1055DC0001F0E8FF070546D56846236806461946DC
:1055EC001A4603F1200532F8047B954226F8027B1B
:1055FC00F9D1B3F8402092B242F00102A3F8402056
:10560C00B3F8402022F001021204120CA3F840203F
:10561C00B3F844205605FBD5B3F8442022F480623D
:10562C001204120CA3F8442030F8022B21F8042B9E
:10563C008D42F9D1B3F84020204692B242F00802D4
:10564C00A3F84020B3F8442022F400621204120C98
:10565C00A3F84420B3F8402092B242F00402A3F81D
:10566C00402005F08FFB206801F09CFF82050BD5D4
:10567C0022682046B2F8443023F400731B041B0C40
:10568C00A2F8443005F067FB206801F08BFFC305DE
:10569C0008D52268B2F8443023F480731B041B0C29
:1056AC00A2F8443005B0BDE8F08FB0F84450A9B270
:1056BC0015F00F0540F0C18011F010012DD10388B9
:1056CC009BB203EA080343F400430380B0F8503064
:1056DC0094F828209BB203EBC20300EB4303B3F80E
:1056EC000434E26BC3F309031A4463642046E26397
:1056FC0005F029FB94F82430002B3FF40FAF226CFB
:10570C002168002A7FF40AAF94F8243043F0800318
:10571C00A1F84C3084F8242000E70588ABB215F4CE
:10572C00006521D0B0F8503094F868219BB203EB9F
:10573C00C20300EB4303B3F80C34B4F86E21C3F38B
:10574C000903C4F8843104F52C7102F005FA2268BF
:10575C002046138823F070031B051B0D43F08003B8
:10576C00138005F0E1FAD9E61A047FF5D7AE038869
:10577C0023F070031B051B0D43F080030380B0F86E
:10578C00503094F868219BB203EBC20300EB430347
:10579C00B3F80C34C3F30903C4F884318BB1D4F8D7
:1057AC007C1171B1B4F86E2102F0D6F9D4F87C31C9
:1057BC00D4F88421294613442046C4F87C3105F0E2
:1057CC00B9FA21680B881B053FF5A8AEB1F850302B
:1057DC00D4F878519BB201F20C40DDB9C25A22F4D4
:1057EC00F8421204120CC252C25A6FEA42426FEAD9
:1057FC00524292B2C2520B8823F4804323F07003BE
:10580C001B041B0C83F4405343F4004343F080030C
:10581C000B8083E63E2D07D86A08EE0748BF01329D
:10582C009202E6E70F8FFFFF6E09C24AED0608BF32
:10583C0006F1FF3642EA8622DBE730F82530190400
:10584C009EB240F1F28030F8253007FB054123F081
:10585C0070031B051B0D43F0800320F8253091F8D5
:10586C00743100F5806EBBB9B0F8503091F86821F6
:10587C009BB2063303EBC2033EF81390C9F309093C
:10588C00B9F1000F00F0B6804B46B1F86E21D1F89B
:10589C007C1102F061F9ADE091F86B3191F868215F
:1058AC00022B40F08580B0F850904FEAC20B1FFAE3
:1058BC0089F916F4804AD1F88031D94406F0400CAD
:1058CC003BD009F102093EF81990C9F30909994531
:1058DC001FD8A3EB0903C1F88031EBB1BCF1000F69
:1058EC000DD030F8223023F4E04323F070031B0476
:1058FC001B0C43F4004343F0C00320F82230B9F1F1
:10590C00000F77D0282101FB05414B46B1F87021DF
:10591C00BDE70023C1F8803130F8223023F48043F6
:10592C0023F070031B041B0C83F4005343F400435B
:10593C0043F0800320F82230D0E709F106093EF845
:10594C001990C9F3090999451FD8A3EB0903C1F8AC
:10595C008031E3B1BCF1000F0DD130F8223023F4CB
:10596C00E04323F070031B041B0C43F4004343F08F
:10597C00C00320F82230B9F1000F3BD0282101FBE5
:10598C0005414B46B1F8722181E7C1F880A130F88E
:10599C00223023F4804323F070031B041B0C83F48C
:1059AC00005343F4004343F0800320F82230D1E746
:1059BC0030F8223023F4E04323F070031B041B0C5B
:1059CC0043F4004343F0C00320F8223091F86831CF
:1059DC0030F82320DB0012F4804FB0F8502092B244
:1059EC0054D0023213443EF81390C9F30909B9F1AB
:1059FC00000F8AD107FB05F16318D3F884214A44C0
:105A0C00C3F88421D3F87C214A44C3F87C21D3F811
:105A1C0080211AB1D3F87831994541D207FB05435F
:105A2C00204693F8681105F085F9320620687FF559
:105A3C0075AD30F8253007FB05499BB203EA080326
:105A4C0043F4004320F8253099F82B3099F82810AE
:105A5C00032B04D01BB1022B37D1F30535D4B0F88E
:105A6C00503007FB05429BB2023303EBC10300EB42
:105A7C004303B3F80034166CC3F309039E4216D8E3
:105A8C0000232046136405F05EF947E50632134403
:105A9C003EF81390C9F30909B9F1000FAAD070E7C9
:105AAC0001F5B4712068214401F092FDBDE7D16B82
:105ABC00F61A1944D163516C16641944516405FBF0
:105ACC000771214401F084FD28E5282202FB0542E0
:105ADC00B0F850C04FEAC10B1FFA8CFC16F0400E08
:105AEC00136C00F5806ADC4406F4804600F0EC8010
:105AFC000CF1020C3AF81CC0CCF3090C9C451BD3DE
:105B0C000025156499F82930B6B2002B54D0012B1E
:105B1C0079D1B0F850C000F204421FFA8CFC0B0192
:105B2C006244D552B0F8502000F20C4092B21044AE
:105B3C00C55268E00080FFFFA3EB0C031364002E3A
:105B4C0079D1282303FB054393F84C20012A40F01C
:105B5C00F880DA6BD3F848E002EB0C065A6CDE6383
:105B6C0062445A649A6B964574D3AEEB020EC3F83A
:105B7C0048E099F829C093B2BCF1000F40F097802F
:105B8C00B0F850E000F2044C1FFA8EFEF444090108
:105B9C00002A6CD13CF8012022F4F8421204120CB9
:105BAC002CF801203CF801206FEA42426FEA524285
:105BBC0092B22CF8012068E0B0F8502000F20445B5
:105BCC0092B20B011544EA5A22F4F8421204120C58
:105BDC00EA52EA5A6FEA42426FEA524292B2EA52EF
:105BEC00B0F8502000F20C4092B21044C25A22F489
:105BFC00F8421204120CC252C25A6FEA42426FEAC5
:105C0C00524292B2C252204605F09DF8002E00F08E
:105C1C00988099F82810226832F8213023F4E04358
:105C2C0023F070031B041B0C43F4404343F080032C
:105C3C0022F8213085E030F8213023F4E04323F0C2
:105C4C0070031B041B0C43F4404343F0800320F807
:105C5C00213076E7BEF1000F03D1624683F84CE0A9
:105C6C0087E7002283F84C209A64724681E73E2A2B
:105C7C0013D84FEA520ED20748BF0EF1010E4FEA6D
:105C8C008E2E1FFA8EFE2CF801E0282202FB054214
:105C9C00128E314601F08CFC53E04FEA521ED206B4
:105CAC007D4A08BF0EF1FF3E42EA8E2280E7BCF12E
:105CBC00010FEAD1B0F850C000F204421FFA8CFC7C
:105CCC00624409015352E0E70CF1060C3AF81CC08F
:105CDC00CCF3090C9C4549D9C2F840E0B6B299F80E
:105CEC002930002B40F08E80B0F8502000F2044593
:105CFC0092B20B011544EA5A22F4F8421204120C27
:105D0C00EA52EA5A6FEA42426FEA524292B2EA52BD
:105D1C00B0F8502000F20C4092B21044C25A22F457
:105D2C00F8421204120CC252C25A6FEA42426FEA93
:105D3C00524292B2C252204605F005F8002E3FF4B2
:105D4C0068AF99F82810226832F8213023F4E04328
:105D5C0023F040031B041B0C83F0300343F400437B
:105D6C0043F0800322F82130FFF7D8BBA3EB0C03E0
:105D7C001364B6B2002BB2D06EB930F8213023F4D4
:105D8C00E04323F070031B041B0C43F4404343F02B
:105D9C00800320F82130282303FB054393F84C2083
:105DAC00012ACED15A6CDE6B6244D3F848E05A64B7
:105DBC009A6B66449645DE6337D3AEEB020EC3F89E
:105DCC0048E099F829C093B2BCF1000F57D1B0F854
:105DDC0050E000F20C4C1FFA8EFEF44409018ABB11
:105DEC003CF8012022F4F8421204120C2CF8012089
:105DFC003CF801206FEA42426FEA524292B22CF810
:105E0C0001202DE0012B96D1B0F8505000F2044245
:105E1C00ADB22A4400250B01D552B0F8502000F247
:105E2C000C4092B21044C55285E7BEF1000F03D16D
:105E3C00624683F84CE0C4E700229A6483F84C2055
:105E4C007246BEE73E2A10D84FEA520ED20748BF20
:105E5C000EF1010E4FEA8E2E1FFA8EFE2CF801E089
:105E6C00282202FB05456A8E13E74FEA521ED20622
:105E7C00094A08BF0EF1FF3E42EA8E22BEE7BCF192
:105E8C00010FEDD1B0F8502000F20C4C92B29444BA
:105E9C000A012CF80230E3E70080FFFF11F0800FBD
:105EAC0070B5054601F007004FF028011CD0012405
:105EBC0000FB011129444C700A614A780870CB70C0
:105ECC0002B1C881022B04BF00230B7195F8A832D4
:105EDC00012B13D00123286885F8A83201F0D8F8DB
:105EEC00002085F8A80270BD002601FB00F404F523
:105EFC00B4712C44294484F86961DDE70220F2E78F
:105F0C0011F0800F10B501F0070204464FF0280184
:105F1C0013D0012302FB011101444B700A7094F859
:105F2C00A832012B13D00123206884F8A83201F089
:105F3C00F3F9002084F8A80210BD01FB02F303F56D
:105F4C00B47101440344002083F86901E6E70220A0
:105F5C00F2E770B52824002601F007014C4305191F
:105F6C0085F8681104F5B4710144C5E95F23C5F8DF
:105F7C00846185F86961006801F02AFB304670BDC8
:105F8C0070B501F00705282101FB05040026C4E9C2
:105F9C000F23012205FB011184F84C200144A3645A
:105FAC00666484F8292084F82850006801F010FBFE
:105FBC00304670BD38B5436801F007059D42044674
:105FCC0028D811F0800F4FF028031AD005FB0333AB
:105FDC00C11801234B7001230D708B7094F8A8220B
:105FEC009A4219D0206884F8A83201F068FA25B9D1
:105FFC00206804F52C7101F0D9FA002084F8A8026D
:10600C0038BD00224B4303F5B4710344014483F8BB
:10601C006921E0E70120F3E70220F1E738B5436896
:10602C0001F00F029A42044626D811F0800F01F0BD
:10603C0007024FF0280115D0012302FB0111014486
:10604C004B7000250A708D7094F8A832012B15D076
:10605C000123206884F8A83201F051FA284684F80C
:10606C00A85238BD01FB02F303F5B471014403449B
:10607C00002083F86901E4E70120F2E70220F0E751
:10608C0010B5282411F0800F1BBF01F0070101FB94
:10609C00044404FB0100001908BF00F5B47099B268
:1060AC001AB90273C180002010BD012283600273F3
:1060BC00F9E7000070B5FEF7C5FD05462F4C2368C7
:1060CC0043F00103236023689B073BD5236841F20F
:1060DC00883623F0F80343F080032360FEF7B2FD0B
:1060EC00002305466360636813F00C0F32D1244B18
:1060FC00244A1A60244B1868FEF762FD05460028F6
:10610C003AD1FEF79FFD0646236823F08073236087
:10611C00236813F0007323D16360FEF793FD0646EA
:10612C00236823F410232360236813F400331DD158
:10613C00226822F480222260626A42F080726262DB
:10614C00A36005E0FEF77EFD401B0228BBD90325AA
:10615C00284670BDFEF776FD401BB042C3D9F6E76A
:10616C00FEF770FD801B0228D2D9F0E7FEF76AFD1E
:10617C00801B6428D8D9EAE70125E9E70010024022
:10618C003404002000127A003C0400202DE9F34175
:10619C00054638B30368DB0710D42B689F075ED421
:1061AC002B68190700F195802B685A0700F1C18004
:1061BC00EB69002B40F02C81002029E0904C6368A7
:1061CC0003F00C03042B07D0636803F00C03082BBB
:1061DC000AD16368DE0307D523689C03DDD56B68A1
:1061EC00002BDAD1012013E06B68B3F5803F12D19C
:1061FC00236843F480332360FEF724FD06462368AE
:10620C009803CAD4FEF71EFD801B6428F7D903201F
:10621C0002B0BDE8F0819BB9236823F4803323607E
:10622C00236823F480232360FEF70CFD06462368C5
:10623C009903B2D5FEF706FD801B6428F7D9E6E773
:10624C00B3F5A02F236803D143F480232360CFE759
:10625C0023F480332360236823F48023CBE7684C3A
:10626C00636813F00C0F07D0636803F00C03082B62
:10627C0010D16368DA030DD423689B0702D52B6910
:10628C00012BAFD123686A6923F0F80343EAC203F8
:10629C00236085E72A695B4B6AB101221A60FEF71D
:1062AC00D1FC064623689F07ECD4FEF7CBFC801B81
:1062BC000228F7D9ABE71A60FEF7C4FC0646236840
:1062CC0098077FF56DAFFEF7BDFC801B0228F6D951
:1062DC009DE7AA694A4E4B4BE2B10122C3F88024D8
:1062EC00FEF7B0FC0446736A9B070DD54FF4FA52C7
:1062FC00454B1B68B3FBF2F3019300BF019B5A1E85
:10630C000192002BF9D14FE7FEF79CFC001B0228F1
:10631C00E9D97CE7C3F88024FEF794FC0446736A41
:10632C009F077FF541AFFEF78DFC001B0228F6D9C5
:10633C006DE7334CE369D80024D40127E36943F0BB
:10634C008053E361E36903F080530093009B2F4E6D
:10635C003368D90518D5EB68012B26D1236A43F095
:10636C0001032362FEF76EFC41F288380646236A6D
:10637C009B073FD5002F3FF41BAFE36923F08053FD
:10638C00E36115E70027E2E7336843F48073336079
:10639C00FEF758FC80463368DA05DCD4FEF752FC75
:1063AC00A0EB08006428F6D931E7ABB9236A41F2B7
:1063BC00883823F001032362236A23F00403236249
:1063CC00FEF740FC0646236A9807D3D5FEF73AFC45
:1063DC00801B4045F7D91AE7052B236A03D143F0FC
:1063EC0004032362BAE723F001032362236A23F038
:1063FC000403B6E7FEF726FC801B4045B7D906E739
:10640C0000100240000042423404002000700040A2
:10641C002A4C626802F00C02082A3ED00022022BA1
:10642C00274B1A662CD1FEF70DFC06462368990102
:10643C0020D42B6AB3F5803F05D16268A96822F499
:10644C0000320A436260696A62680B4322F4741278
:10645C001343012263601A4B1A66FEF7F3FB0546E1
:10646C0023689A013FF5A8AEFEF7ECFB401B02280F
:10647C00F6D9CCE6FEF7E6FB801B0228D6D9C6E699
:10648C00FEF7E0FB054623689B017FF595AEFEF712
:10649C00D9FB401B0228F6D9B9E6012B3FF4A2AE7A
:1064AC0060682B6A00F480329A427FF49BAE6B6A70
:1064BC0000F47010C01A18BF0120A9E600100240A9
:1064CC000000424230B5184B87B002AC03F1100506
:1064DC00224618685968083303C2AB421446F7D1F8
:1064EC0040F201231149ADF804304B6803F00C0263
:1064FC00082A17D1C3F3834218326A44DB0312F81B
:10650C00100C0CD54B680A4AC3F340435043183364
:10651C006B4413F8143CB0FBF3F007B030BD054BE3
:10652C005843FAE70248F8E7C8B3000800100240E5
:10653C0000127A0000093D002DE9F0410D46044699
:10654C0010B90120BDE8F081444A136803F0070339
:10655C008B4228D321688E0730D4CA0743D43F4AD4
:10656C00136803F00703AB4265D822683C4D12F068
:10657C00040F6CD1130706D56B68226923F46053A2
:10658C0043EAC2036B60FFF79DFF6B68354AC3F3A8
:10659C000313D35CD840344B1860344B1868FEF7A7
:1065AC000FFB0020CEE7136823F007030B431360A7
:1065BC00136803F007038B42C3D1CBE7284B11F0D0
:1065CC00040F1EBF5A6842F4E0625A60080742BFCB
:1065DC005A6842F460525A605A68A06822F0F0027D
:1065EC0002435A60B9E762681D4E012A33681AD11A
:1065FC0013F4003FA5D0736841F2883823F00303ED
:10660C0013437360FEF71EFB07467368626803F062
:10661C000C03B3EB820FA2D0FEF714FBC01B40455A
:10662C00F3D903208EE7022A02D113F0007FE1E7B1
:10663C0013F0020FDEE7136823F007032B431360FC
:10664C00136803F00703AB427FF47BAF8DE76B68F5
:10665C00E16823F4E0630B436B608BE7002002409E
:10666C0000100240B8B30008340400203C040020A1
:10667C00044B054A5B68C3F30223D35C034A1068DE
:10668C00D840704700100240B0B30008340400201A
:10669C00044B054A5B68C3F3C223D35C034A1068FE
:1066AC00D840704700100240B0B3000834040020FA
:1066BC0003682DE9F3410546D80721D5364CE3692B
:1066CC00D9002BD40126E36943F08053E361E369DD
:1066DC0003F080530193019B304F3B68DA051FD5C3
:1066EC00236A6A6813F440732ED1236A6A6823F410
:1066FC004073134323621EB1E36923F08053E361BB
:10670C002A68910706D52449A8684B6823F44043AE
:10671C0003434B60D30636D4002012E00026DBE79F
:10672C003B6843F480733B60FEF78CFA80463B6811
:10673C00DB05D5D4FEF786FAA0EB08006428F6D961
:10674C00032002B0BDE8F08102F440729A42CCD032
:10675C000120134A236AC2F84004002023F440713C
:10676C00DF07C2F840042162BFD5FEF76BFA41F295
:10677C0088380746236A9807B7D4FEF763FAC01B1C
:10678C004045F7D9DCE7044AE968536823F48003F1
:10679C000B435360C0E700BF001002400070004084
:1067AC00000042422DE9F3411C4616460F460546B1
:1067BC00FEF748FA3444241AFEF744FA8046244B78
:1067CC001B68C3F3CB33634301932A68936837EA9E
:1067DC00030301D000202EE0731CF7D0FEF732FA31
:1067EC00A0EB0800A04229D32B685A6822F0E002E3
:1067FC005A606A68B2F5827F0AD1AA68B2F5004F76
:10680C0002D0B2F5806F03D11A6822F040021A60F0
:10681C00AA6AB2F5005F07D11A6822F400521A6016
:10682C001A6842F400521A60012385F85130002393
:10683C00032085F8503002B0BDE8F081019A019B2D
:10684C00002A03F1FF3308BF14460193BDE700BFD4
:10685C003404002010B513460A4680210446FFF785
:10686C00A1FF20B10320636D43F02003636510BDCD
:10687C0010B50446002851D0436A002B4AD1426817
:10688C00B2F5827F00D0C3610023A36294F851302B
:10689C0003F0FF0223B9204684F85020FDF7E4FFF3
:1068AC000223226884F851301368A06823F0400357
:1068BC001360636800F4044003F482730343E068DC
:1068CC00A16900F400600343206900F00200034357
:1068DC00606900F00100034301F400700343E069B8
:1068EC00090C00F038000343206A01F0040100F0A9
:1068FC0080000343A06A00F400500343136051600E
:10690C00D369002023F40063D3610123606584F80C
:10691C00513010BD0023C0E90433B5E70120F8E77E
:10692C0038B590F850300446012B54D0012380F830
:10693C00503090F85130012BDDB24AD1002931D0C2
:10694C00002A2FD0032380F8513000234365C0E97F
:10695C001033C28683638387C38783688286B3F5CB
:10696C00004F0268016307D1136823F040031360E2
:10697C00136843F480431360A06C184B0C32C36251
:10698C00174B8362174B036300234363E38E9BB265
:10699C00FEF702FA58B1636D43F0100363650123EF
:1069AC0084F85130002384F85030284638BD2368D1
:1069BC0000251A6852065EBF1A6842F040021A603F
:1069CC005A6842F020025A605A6842F002025A6039
:1069DC00E8E70225E6E70225E7E700BFF7690008CC
:1069EC00256A0008036A0008704708B5406AFFF77B
:1069FC00FBFF08BD7047406A08B50268536823F076
:106A0C0003035360436D43F010034365012380F887
:106A1C005130FFF7EFFF08BD37B50546446AFEF766
:106A2C0011F92B6802461B689B0626D42368204666
:106A3C00596821F020015960596821F00201596010
:106A4C006421FFF707FF18B1636D43F02003636502
:106A5C00A36833B901932368DA6801929B680193A8
:106A6C00019B0023E386012384F85130636D23B12D
:106A7C002046FFF7BFFF03B030BD204604F0F2FB09
:106A8C00F9E70000036830B559689A68044602F0CB
:106A9C004105012D85B006D14D0604D5036C05B01A
:106AAC00BDE830401847900704D50D0602D52046A6
:106ABC00636CF4E712F0600F4DD088064BD5550689
:106ACC000ED594F85100002503283ED0606D40F09F
:106ADC00040060650195D868019098680190019850
:106AEC0090060CD5626D42F00102626500220392A1
:106AFC009A6803921A6822F040021A60039A626D37
:106B0C004AB35A6822F0E0025A60012284F85120FC
:106B1C008A0722D05A68E06C22F003025A6040B116
:106B2C00104B4363FEF774F918B1636D43F04003E7
:106B3C006365A06C78B10B4B4363FEF769F950B1F8
:106B4C00636D43F04003636505E00295DA680292D9
:106B5C009B680293029B05B030BD2046FFF74AFFAD
:106B6C00F9E700BF756B000808B50023406AC387BE
:106B7C00C386FFF73FFF08BD90F83D30012B20D1B5
:106B8C00022380F83D300368DA6842F00102DA60D3
:106B9C000D4A93420AD0B3F1804F07D0A2F594323C
:106BAC00934203D002F58062934204D19A6802F0BA
:106BBC000702062A03D01A6842F001021A6000206C
:106BCC0070470120704700BF002C01407047704790
:106BDC00704770477047036810B51A6904469107EF
:106BEC000ED5DA6892070BD56FF002021A610122FA
:106BFC0002779B699B0777D0FFF7EAFF0023237787
:106C0C0023681A69500710D5DA6851070DD56FF053
:106C1C0004021A61022222779B69204613F4407FFA
:106C2C0068D0FFF7D5FF0023237723681A69120772
:106C3C000FD5DA6810070CD56FF008021A61042220
:106C4C002277DB69204699075AD0FFF7C1FF002352
:106C5C00237723681A69D20610D5DA68D0060DD5C9
:106C6C006FF010021A6108222277DB69204613F4B8
:106C7C00407F4BD0FFF7ACFF0023237723681A69C2
:106C8C00D10708D5DA68D20705D56FF00102204686
:106C9C001A61FFF79BFF23681A69100608D5DA689A
:106CAC00110605D56FF0800220461A6100F057F9E5
:106CBC0023681A69520608D5DA68500605D56FF0B4
:106CCC00400220461A61FFF785FF23681A69910676
:106CDC0022D5DA6892061FD56FF020022046BDE857
:106CEC0010401A6100F03AB9FFF771FF2046FFF728
:106CFC0070FF83E7FFF76BFF2046FFF76AFF92E711
:106D0C00FFF765FF2046FFF764FFA0E7FFF75FFF83
:106D1C002046FFF75EFFAFE710BD0000134A036883
:106D2C0090420AD0B0F1804F07D0A2F59432904235
:106D3C0003D002F58062904207D14A6823F07003B9
:106D4C001343CA6823F4407313434A6923F0800346
:106D5C00134303608B68C3620B688362034B9842D6
:106D6C0004BF0B690363012343617047002C01408E
:106D7C0010B5044630B390F83D3003F0FF021BB958
:106D8C0080F83C20FDF7A4FE0223206884F83D30F7
:106D9C00211DFFF7C3FF0123002084F8463084F83F
:106DAC003E3084F83F3084F8403084F8413084F829
:106DBC00423084F8433084F8443084F8453084F809
:106DCC003D3010BD0120FCE710B584680A4324F463
:106DDC007F4442EA03222243826010BD38B590F80A
:106DEC003C300446012B4FF0020027D0012384F8DD
:106DFC003D00206884F83C30836823F47F4323F003
:106E0C00770383600B68602B4AD031D8402B5FD05E
:106E1C0015D8202B03D009D833F0100208D1826882
:106E2C0022F07002134343F0070337E0302BF6D007
:106E3C000123002084F83D3084F83C0038BD502BF1
:106E4C00F6D14A68CD68016A036A21F00A0123F081
:106E5C000103036283690A4323F0F00343EA051339
:106E6C0083610262836823F0700343F0570315E0DB
:106E7C00702B0BD0B3F5005FDAD1CB68D1E90121CF
:106E8C00FFF7A2FF836843F4804307E0CB68D1E9A6
:106E9C000121FFF799FF836843F077038360C7E70D
:106EAC00036A4D6823F01003C96803628269036AA0
:106EBC0022F4704223F0A00343EA051342EA0132A4
:106ECC0082610362836823F0700343F06703E5E794
:106EDC004A68CD68016A036A21F00A0123F00103B4
:106EEC00036283690A4323F0F00343EA05138361C9
:106EFC000262836823F0700343F04703CEE700007F
:106F0C0030B590F83C300246012B4FF0020022D0F5
:106F1C00136882F83D005C680D6824F070042C4303
:106F2C0098685C600C4CA3420AD0B3F1804F07D038
:106F3C00A4F59434A34203D004F58064A34204D195
:106F4C00496820F08000014399600123002082F8F9
:106F5C003D3082F83C0030BD002C0140704770473A
:106F6C0010B504460368C1681A6922F440520A43FA
:106F7C001A6182680069D9680243606921F4B051D2
:106F8C0021F00C0102430A43DA605A69A16922F428
:106F9C0040720A435A610E4A934215D1FFF778FBAF
:106FAC0019234343626820689200B3FBF2F3642216
:106FBC00B3FBF2F102FB11331B013233B3FBF2F3DF
:106FCC0003EB0113836010BDFFF752FBE8E700BF32
:106FDC000038014010B5044640B390F83D3003F042
:106FEC00FF021BB980F83C20FDF7AEFD242322687C
:106FFC0084F83D30D368204623F40053D360FFF768
:10700C00AFFF236800201A6922F490421A615A6972
:10701C0022F02A025A61DA6842F40052DA60202324
:10702C00206484F83D3084F83E3010BD0120FCE72C
:10703C0084B001A880E80E0004B00020704703461D
:10704C004FF43F420020A3F84400A3F840207047BF
:10705C00B0F8403023F47C535B045B0CA0F8403058
:10706C00002070470020704784B010B5044603A878
:10707C0080E80E0000200123A4F84030A4F8400062
:10708C00A4F84400A4F85000BDE8104004B07047C8
:10709C00F0B50A78CD7830F82240034624F4EC445D
:1070AC0024F070042404240C032D4ED8DFE805F0E2
:1070BC00024A4846284644F4007448F280073C4390
:1070CC0023F8224033F82240904EA4B234401443AB
:1070DC00274323F822700C7B03EB0217002C40F0A3
:1070EC008180CC8891F801C064086400BCF1000F69
:1070FC002DD0B3F8501089B23944A1F8004433F8BC
:10710C0022104F0609D533F8221089B2314041F4D0
:10711C00004141F0C00123F8221033F822107C4CBE
:10712C0089B2012D01EA040101D081F0200141F462
:10713C00004141F0800123F82210AEE044F4C06419
:10714C000020BAE744F48064FAE70120B5E7B3F80D
:10715C005050ADB23D44A5F80844B3F850400D6909
:10716C00A4B23C446DBBB4F80C1421F4F8410904EE
:10717C00090CA4F80C14B4F80C146FEA41416FEA32
:10718C00514189B2A4F80C1433F8221049040DD5DE
:10719C0033F8221021F4E04121F070010904090CAC
:1071AC0041F4404141F0800123F8221033F82210C1
:1071BC0021F4804121F070010904090C81F4405143
:1071CC00B5E73E2D05D86908EE0748BF01318902A5
:1071DC00D7E76E094F49ED0608BF06F1FF3641EAC5
:1071EC008621CEE733F82240A4B2344044F4014463
:1071FC0044F0800423F82240B3F85040B1F808C0A2
:10720C00A4B24FEA5C0C3C444FEA4C0CA4F800C40A
:10721C00B3F85040A4B23C444F897F087F00A4F8D7
:10722C0008744978D1BB33F822104F0409D533F8D0
:10723C00221089B2314041F4404141F0800123F8E1
:10724C00221033F822104D060DD533F8221021F4FC
:10725C00E04121F070010904090C41F4004141F0B6
:10726C00C00123F8221048F2800433F8221021F4D4
:10727C00804121F070010904090C81F44051214333
:10728C0023F8221033F8221021F4E04121F04001C0
:10729C000904090C0C4323F82240F0BD33F82210EA
:1072AC004C0409D533F8221089B2314041F44041E5
:1072BC0041F0800123F8221033F8221049060DD535
:1072CC0033F8221021F4E04121F070010904090C7B
:1072DC0041F4004141F0C00123F8221033F8221090
:1072EC000B4C89B22140012D18BF81F0200141F4D3
:1072FC00004141F0800123F8221033F8221021F4D0
:10730C00804121F070010904090C10E78F8FFFFFF9
:10731C00BF8FFFFF0080FFFF4A780B78097BD9BB3A
:10732C000AB330F8232051060DD530F8232022F46F
:10733C00E04222F070021204120C42F4004242F0BD
:10734C00C00220F8232030F8232022F4E04222F05F
:10735C0040021204120C42F4004242F0800220F867
:10736C0023200020704730F8232052040DD530F82C
:10737C00232022F4E04222F070021204120C42F498
:10738C00404242F0800220F8232030F8232022F4DF
:10739C00804222F07002DCE7002A4AD130F8232028
:1073AC0051040DD530F8232022F4E04222F0700273
:1073BC001204120C42F4404242F0800220F82320C6
:1073CC0030F8232052060DD530F8232022F4E04269
:1073DC0022F070021204120C42F4004242F0C0027D
:1073EC0020F8232048F2800130F8232022F4E042D8
:1073FC0022F070021204120C42F4004242F0C0025D
:10740C0020F8232030F8232022F4804222F070024E
:10741C001204120C0A4320F8232030F8232022F403
:10742C00E04222F040021204120C114320F8231007
:10743C0097E730F8232051040DD530F8232022F49F
:10744C00E04222F070021204120C42F4404242F06C
:10745C00800220F8232030F8232052060DD530F876
:10746C00232022F4E04222F070021204120C42F4A7
:10747C00004242F0C00220F8232048F2800130F88C
:10748C00232022F4E04222F070021204120C42F487
:10749C00404242F0800220F8232030F8232022F4CE
:1074AC00E04222F040021204120C0A4320F823207E
:1074BC0030F8232022F4804222F07002B3E74B789C
:1074CC000A788BB130F8223023F4E04323F04003E8
:1074DC001B041B0C83F0100343F4004343F08003A4
:1074EC0020F822300020704730F8223023F48043FB
:1074FC0023F070031B041B0C83F48053ECE70B7B11
:10750C003BBB4B780A7833B330F822305B060DD591
:10751C0030F8223023F4E04323F070031B041B0CDF
:10752C0043F4004343F0C00320F82230CB78012B06
:10753C000FD030F8223023F4E04323F040031B0437
:10754C001B0C83F0200343F4004343F0800320F82A
:10755C0022300020704730F822305B040DD530F813
:10756C00223023F4E04323F070031B041B0C43F480
:10757C00404343F0800320F8223030F8223023F4CB
:10758C00804323F070031B041B0C83F44053DAE795
:10759C0011B98023A0F84C300020704700207047B0
:1075AC0000207047B0F8440080B27047002070474C
:1075BC0000EB4200013300F580605B0800EB8303B5
:1075CC00984200D1704731F8022B20F8042BF7E7D2
:1075DC002DE9F0474B780446012B0D460A7B40F011
:1075EC008581D1F810808F694969474528BF474686
:1075FC000ABBBFB2EA883B46FFF7DAFFB4F850008B
:10760C00297880B204F20442090102448F522A788C
:10761C0034F8223023F4E04323F040031B041B0C0A
:10762C0083F03003002043F4004343F0800324F83C
:10763C002230BDE8F087EB7895F800E0022B2E6A3B
:10764C004FEA0E1C40F0B880B04580F09A8030F8BC
:10765C002E30F61B23F4E04323F070031B041B0CA9
:10766C0043F4014343F0800320F82E3030F82E9081
:10767C00B0F850E019F040092E62BBB201EB070ADA
:10768C001FFA8EFE3FD000F20C42724422F80C30EE
:10769C006A89FFF78DFFB04536BFF31B00233E46CA
:1076AC006A782B62C5F814A0B3B2002A40F0D280DD
:1076BC00B4F85000297880B204F204420901024463
:1076CC0086B9885A20F4F8400004000C8852885A75
:1076DC006FEA40406FEA504080B288522A89514686
:1076EC00204666E03E2E05D87008F60748BF0130EC
:1076FC008002F1E77709F0069B4808BF07F1FF37D6
:10770C0040EA8720E8E700F20442724422F80C3089
:10771C002A89FFF74DFFB04536BFF31B4B463E465B
:10772C006A782B62C5F814A0B3B2002A40F0D1805D
:10773C00B4F85000297880B204F20C4209010244DA
:10774C0076B9885A20F4F8400004000C8852885A04
:10775C006FEA40406FEA504080B288526A89BEE7B7
:10776C003E2E05D87008F60748BF01308002F3E7BB
:10777C007709F0067C4808BF07F1FF3740EA8720FD
:10778C00EAE730F82E2022F4E24222F070021204D2
:10779C00120C42F4004242F0800220F82E20B0F885
:1077AC00503000F204429BB21A44B3B222F80C30AF
:1077BC002A89FFF7FDFE2AE730F82E20F61B22F46B
:1077CC00E04222F070021204120C42F4014242F028
:1077DC00800220F82E2030F82E90B0F850E019F0EE
:1077EC0040092E62BBB201EB070A1FFA8EFE3ED097
:1077FC0000F20C42724422F80C306A89FFF7D8FE72
:10780C00B04536BFF31B00233E46C5F814A02B62CF
:10781C00002E3FF4FCAE6A78B3B2DAB9B4F850205B
:10782C00287892B204F204413E2E4FEA0010114423
:10783C0007D87208F60748BF0132920292B2425240
:10784C004CE77709F206484A08BF07F1FF3742EACE
:10785C008722F3E7012A7FF441AFB4F8500029786E
:10786C0080B204F20442090102448B5236E700F262
:10787C000442724422F80C302A89FFF799FEB04575
:10788C0036BFF31B4B463E46C5F814A02B62002EA8
:10789C003FF4BDAE6A78B3B2DAB9B4F850202878A8
:1078AC0092B204F20C413E2E4FEA0010114407D85C
:1078BC007208F60748BF0132920292B242524DE76B
:1078CC007709F206284A08BF07F1FF3742EA8722F8
:1078DC00F3E7012A7FF442AFB4F85000297880B264
:1078EC0004F20C42090102448B5237E7002A3DD1C5
:1078FC008B690969B0F850008B4284BF5A1A0B4649
:10790C002978AA6180B204F20C42090102446BB9D5
:10791C008B5A23F4F8431B041B0C8B528B5A6FEAC3
:10792C0043436FEA53439BB28B5208E03E2B12D871
:10793C005808DE0748BF0130800280B288522A788E
:10794C0034F8223023F4804323F070031B041B0C07
:10795C0083F4405366E65809DB06034B08BF00F17D
:10796C00FF3043EA8023DEE70080FFFFCA78022A5B
:10797C007FD153BBB0F850200B78096992B200F25A
:10798C0004401B01104404F20C4600293AD1C25A9F
:10799C0022F4F8421204120CC252C25A6FEA42424A
:1079AC006FEA524292B2C252B4F8502092B23244B0
:1079BC00D15A21F4F8410904090CD152D15A6FEA79
:1079CC0041416FEA514189B2D152EB69002BB6D0DB
:1079DC0044F240032A7834F8221003EA01008B4366
:1079EC0001D00028ABD134F8223023F4E04323F04B
:1079FC0070031B041B0C43F4004343F0C00324F836
:107A0C0022309CE73E2913D84A0811F001011ABF15
:107A1C00571CBF029702BFB2C752B4F8500080B2D5
:107A2C003044034401B10132920292B21A80CCE785
:107A3C004F0911F01F01474A0FD042EA872292B238
:107A4C00C252B4F8502092B2324413443A4601B9AF
:107A5C007A1E404941EA8222E7E707F1FF3C42EAFD
:107A6C008C2292B2C252B4F8502092B216443344D3
:107A7C00ECE7012A6CD189692A69914294BF0020F4
:107A8C00881AA86188BF1146002B7FF458AFB4F850
:107A9C0050202B7892B204F204461B01164404F2D7
:107AAC000C40F1B9F25A22F4F8421204120CF252C0
:107ABC00F25A6FEA42426FEA524292B2F252B4F870
:107ACC00502092B20244D15A21F4F8410904090C15
:107ADC00D152D15A6FEA41416FEA514189B2D15228
:107AEC002DE73E2913D84A0811F001011ABF571C83
:107AFC00BF029702BFB2F752B4F85060B6B230442E
:107B0C00034401B10132920292B21A8017E74F0975
:107B1C0011F01F010F4A0FD042EA872292B2F252A3
:107B2C00B4F8502092B2024413443A4601B97A1E7A
:107B3C00084941EA8222E7E707F1FF3C42EA8C223E
:107B4C0092B2F252B4F8502092B210440344ECE7D3
:107B5C0001206EE50080FFFF00EB4200F0B500F560
:107B6C0080605D080C4607462E46023436B9DB07AA
:107B7C0044BF30F8253001F81530F0BD37F8042B30
:107B8C00013E92B204F8022C120A04F8012CECE724
:107B9C00014B185C704700BFB8090020014B195409
:107BAC00704700BFB809002008B54FF48062024945
:107BBC000248FCF719FB08BD00FC0108B8090020BD
:107BCC00002370B586B0CDE9013301230F4C05932A
:107BDC00CDE90334FDF71AFAA8B934220C4B01A9EC
:107BEC00DA6002A8FDF7BCFA58B90A4D0A4E2146D4
:107BFC00F5E802230320FDF74FFA10B90834B4421C
:107C0C00F5D1FDF715FA06B070BD00BF00FC0108F8
:107C1C0000200240B80900200000020830B510F422
:107C2C007F4F85B00190C0F30725C0F3074248D0C1
:107C3C000620FF239DF80440591B6043B0FBF3F072
:107C4C006FF05403434303EB440303EB4303DBB2F6
:107C5C0003FB05F4C3F1FF036B4324121B12C4F1A5
:107C6C00FF04C3F1FF03514354435343C1F30721B2
:107C7C00C4F30724C3F3072306281ED8DFE800F05B
:107C8C0004061114181D040014461A4613460A461D
:107C9C00002064F3070063F30F2062F3174005B074
:107CAC0030BD0C461946F1E723460C461146ECE76D
:107CBC0010461C460A460146E8E7234614460A4687
:107CCC00F0E714461346E3E784B004B0FFF7A6BF11
:107CDC0038B5094C63781BB9FFF766FF0123637055
:107CEC000024064D2046FFF753FF01340B2C05F8FA
:107CFC00010BF7D138BD00BF800700200918002008
:107D0C0070B50E4C63781BB9FFF74EFF01236370FF
:107D1C0000250B4E284616F8011B0135FFF73EFFD8
:107D2C000B2DF7D1E37801252BB1FFF749FF002389
:107D3C002570A37070BDA570FCE700BF8007002004
:107D4C00091800204FF0FF33102143608360C3609B
:107D5C00144B021D196103689A630C22DA871A68A6
:107D6C00136843F04003136001680B68CA8F92B22A
:107D7C0042B91A68006922F040021A601022094BBD
:107D8C005A6170479A68D207F0D51B7B8A6B1370C7
:107D9C000268936B01339363D38F013B9BB2D38700
:107DAC00E2E700BF000C01401FB504460023406809
:107DBC00227ACDE9023301908DF808208B4210D144
:107DCC002046FFF7BFFFE21C01AB083412F8010F8D
:107DDC0013F8011B944241EA00011170F6D104B072
:107DEC0010BD00BF00BF00BF00BF00BF00BF00BF81
:107DFC0000BF0133E2E700002DE9F84F0F463F4981
:107E0C00002300F1130504462A4688464FF0800CE7
:107E1C00D0F8109083614361C0F81B308E46002669
:107E2C003EF9020BD0F1000B4FEAE00A0BF0070B06
:107E3C0019F80AA000F0070058BFCBF100004CFA6B
:107E4C0000F01AEA000F1EBF92F801A04CFA06F0DF
:107E5C0040EA0A0006F1010618BF5070082EDFD167
:107E6C0012F8010F0833C043582B107001F11001A8
:107E7C00D4D104F11F06002111223046FCF7A6FADA
:107E8C00B0234FF0800E03FB078100274FF0010851
:107E9C00002015F801CF4EFA00F313EA0C0F22D094
:107EAC0031F910201346002AB8BFD31DD2F10009B6
:107EBC0009F0070902F0070258BFC9F10002002AB5
:107ECC004FEAE3030BDA083201331BB2234493F875
:107EDC001F9008FA02F249EA0202DA7703E0013352
:107EEC001BB2642BF0DD01300828D4D10837582F91
:107EFC0001F11001CCD13046BDE8F88F1EB400085A
:107F0C00407FC0F380007047802300EBD100027DDE
:107F1C0001F007010B411A4214BF012000207047E9
:107F2C000229034607D0032900F11F0001D00129C3
:107F3C0000D1D977704700F8301F704700F11F034C
:107F4C0000F151022F3053F8041B834242F8041BFA
:107F5C00F9D11B781370704700F12001102208B57D
:107F6C005230FCF70DF9003818BF012008BD084449
:107F7C00C2777047322200211F30FCF727BA002944
:107F8C0012DACB1D083109B24A4202F0070201F0A5
:107F9C0007014FEAE30358BF5142184490F8200000
:107FAC00084100F001007047CB1001331BB201F007
:107FBC000701F2E7823989B221299ABF024B33F8C3
:107FCC0011000020704700BFDAB3000810B504465A
:107FDC0010B310F0010317BF00231A461A46FF21F5
:107FEC0008BF1946522000F053FD14F002031CBFC9
:107FFC000023FF22194608BF1A46532000F048FD03
:10800C0014F004031DBF0022FF2311461A4608BFBB
:10801C001946542000F03CFD012010BDF0B59DF830
:10802C00144090F8C059012C38BF01242B412A412F
:10803C002C411825802705FB01000021073047FA49
:10804C0001F52B4214BFFE26E026154200F8016F05
:10805C0014BFFE26E02625420CBFE025FE2501318B
:10806C00082906720574EAD1F0BD2DE9F3410546E5
:10807C000E46174698460024E1B23B463246284647
:10808C00CDF800800134FFF7C9FF652CF4D102B0A4
:10809C00BDE8F08110B504462378002BFCD12146B5
:1080AC00012340F67812094801F8083BFEF738FC2A
:1080BC002378002BFCD1012304F518612370402296
:1080CC00BDE810400148FEF72BBC00BF540800204F
:1080DC00002310B504461A461946FFF7C6FF204682
:1080EC00BDE81040FFF7D6BF012830B501D8C0B2AB
:1080FC0030BDB0F5F75F88BFFF224FF001049EBF83
:10810C0042090832D2B2A3185910C3F34705C3F37E
:10811C004F035B439BB2984206D2013DEAB29442B4
:10812C00F1D9013CE0B2E3E7FF2902D00135ECB212
:10813C00F5E70846DCE70000074B188800EB402207
:10814C0000EB820000F55850193080B2188000EB1B
:10815C001020C0B2704700BF8807002041064CBFFA
:10816C00C343024610B548BFDAB20D4CC2F301123C
:10817C0004EB420148BF03F00F03497854BF00F0F1
:10818C000F030133594314F81230020603EB211389
:10819C00DBB244BF5B42DBB283F0800010BD00BF9A
:1081AC008EB7000884B0134B0190303113F81130A6
:1081BC00E4214B43C2EB13231C33002BC0F30720E9
:1081CC00B8BF5B42A0EBC3031BB223EAE373434388
:1081DC0000201B128DF80530019BDAB262F3070008
:1081EC00C3F3072262F30F20C3F3074363F3174073
:1081FC0004B070474004002084B0134B0190303120
:10820C0013F81130E4214B43C2EB13231C33002B26
:10821C00C0F30740B8BF5B42A0EBC3031BB223EA19
:10822C00E373434300201B128DF80630019BDAB236
:10823C0062F30700C3F3072262F30F20C3F3074373
:10824C0063F3174004B070474004002084B00190E1
:10825C0000208DF80420019BDAB262F30700C3F30F
:10826C00072262F30F20C3F3074363F3174004B0F4
:10827C007047000084B0019000200A4B303113F895
:10828C0011309B1A8DF80430019BDAB262F30700AF
:10829C00C3F3072262F30F20C3F3074363F31740C2
:1082AC0004B070474004002084B0019000200B4BB8
:1082BC0003EB410393F861309B1A8DF80430019B5A
:1082CC00DAB262F30700C3F3072262F30F20C3F3A1
:1082DC00074363F3174004B0704700BF400400200D
:1082EC0030B5134D85B03031019005EB41035B780F
:1082FC00C0B2A3F1200464B2002CBCBFC3F12003B4
:10830C005CB215F811309A1A224410448DF804000E
:10831C000020019BDAB262F30700C3F3072262F379
:10832C000F20C3F3074363F3174005B030BD00BF04
:10833C004004002084B0019000209DF8102003EB35
:10834C00430302EB53038DF80430019BDAB262F362
:10835C000700C3F3072262F30F20C3F3074363F351
:10836C00174004B070471FB592B2019048B2002874
:10837C0002FB02F2BCBF494248B2C0F1380000FB1C
:10838C00002080B21C46FFF7AFFE00EB4000044417
:10839C0000208DF80440019BDAB262F30700C3F3AE
:1083AC00072262F30F20C3F3074363F3174004B0B3
:1083BC0010BD00001FB5124C0190303304EB43008C
:1083CC0014F813304078703B4B43203802FB0032DA
:1083DC0000209DF80430002AB8BF7F3203EBE21373
:1083EC008DF80430019BDAB262F30700C3F3072265
:1083FC0062F30F20C3F3074363F3174004B010BDBF
:10840C00400400201FB5124C0190303304EB4300A4
:10841C0014F813304078703B4B43203802FB003289
:10842C0000209DF80430002AB8BF3F3203EBA213A2
:10843C008DF80430019BDAB262F30700C3F3072214
:10844C0062F30F20C3F3074363F3174004B010BD6E
:10845C004004002030B5174D85B03033019005EB4A
:10846C0043046478C0B2203C544315F81320A2F1A5
:10847C0070035BB2002BBCBFC2F1700253B2C3F1EC
:10848C00380301FB034111EB410148BF7F3100EB85
:10849C00E1108DF804000020019BDAB262F30700B2
:1084AC00C3F3072262F30F20C3F3074363F31740B0
:1084BC0005B030BD4004002030B50D4685B00190AC
:1084CC00C4B21046FFF74AFE124B303513F8153084
:1084DC00C218D2B2A2F180035BB2002BBCBFC2F1B6
:1084EC00800253B20C2200205B00DBB2534304EB3E
:1084FC0013248DF80440019BDAB262F30700C3F336
:10850C00072262F30F20C3F3074363F3174005B050
:10851C0030BD00BF4004002084B0114B01903031BD
:10852C0013F81110C0B28B1A5BB2002BBCBF521ADD
:10853C0053B21822DBB2534300EB13208DF8040026
:10854C000020019BDAB262F30700C3F3072262F347
:10855C000F20C3F3074363F3174004B0704700BF09
:10856C0040040020C94384B00190C9B2C0F3074055
:10857C004143002009128DF80610019BDAB262F318
:10858C000700C3F3072262F30F20C3F3074363F31F
:10859C00174004B0704784B0C9B20190C1F1820198
:1085AC00C0B20029A8BF40188DF804000020019B20
:1085BC00DAB262F30700C3F3072262F30F20C3F3AE
:1085CC00074363F3174004B0704784B003EB830296
:1085DC00BDF81030019013449BB2FF2B28BFFF2332
:1085EC00DB43C0F30740DBB20344FF2B28BFFF2360
:1085FC0000208DF80630019BDAB262F30700C3F35A
:10860C00072262F30F20C3F3074363F3174004B050
:10861C00704700291FB5B8BF4942002AB8BF524263
:10862C0009B2090112B2FF294FEA0212A8BFFF21B9
:10863C00FF2AA8BFFF22BDF8184009B2234412B28A
:10864C009BB29142D4BF5B189B189BB2FF2B28BFE7
:10865C00FF23DB430190DBB2C0F307400344FF2B45
:10866C0028BFFF2300208DF80630019BDAB262F39D
:10867C000700C3F3072262F30F20C3F3074363F32E
:10868C00174004B010BD00001FB5482B0190C0F37B
:10869C00074030D8BDF81840E31A9BB2FF2B28BF17
:1086AC00FF23083189B2102905D902F1080189B2DA
:1086BC00112928BFFF23DB43DBB21844002AB8BFC3
:1086CC000332FF2828BFFF208DF8060000200B493D
:1086DC00897801EBA2028DF80420019BDAB262F3D7
:1086EC000700C3F3072262F30F20C3F3074363F3BE
:1086FC00174004B010BDFF23D3E700BF7C0E002051
:10870C0084B0BDF81020C0F30741D31A9BB2FF2BE5
:10871C0028BFFF23DBB2DA43D2B21144FF2928BFB2
:10872C00FF210190034400208DF804308DF80610D1
:10873C00019BDAB262F30700C3F3072262F30F2046
:10874C00C3F3074363F3174004B0704784B0BDF81C
:10875C0010200190D31A9BB2FF2B28BFFF23DB43C1
:10876C00C0F30740DBB20344FF2B28BFFF230020DC
:10877C008DF80630019BDAB262F30700C3F30722CF
:10878C0062F30F20C3F3074363F3174004B0704741
:10879C0010B5044610B9C90FC80110BD80EAE072CB
:1087AC00A2EBE07212B2002901EB02030CDB891A76
:1087BC00490191FBF3F1C1F120014BB2D8B2002C6D
:1087CC00BCBF4042C0B2E8E75B01521A93FBF2F324
:1087DC00C3F160035BB2F1E730B5C0F3072585B098
:1087EC00EB1A01901046DCB2FFF7D2FFC0EB8013FE
:1087FC0000EB830004440020E4B26C4324128DF897
:10880C000540019BDAB262F30700C3F3072262F35F
:10881C000F20C3F3074363F3174005B030BD30B5E9
:10882C00C0F3074585B0EB1A01901046DCB2FFF798
:10883C00AFFFC0EB801300EB830004440020E4B2D4
:10884C006C4324128DF80640019BDAB262F30700E8
:10885C00C3F3072262F30F20C3F3074363F31740FC
:10886C0005B030BD30B585B0C0F3072501909DF83B
:10887C0020001C1A1046FFF78BFF2C44E4B2241A7C
:10888C000020E4B26C4324128DF80540019BDAB24F
:10889C0062F30700C3F3072262F30F20C3F307430D
:1088AC0063F3174005B030BD30B585B0C0F3074554
:1088BC0001909DF820001C1A1046FFF769FF2C440C
:1088CC00E4B2241A0020E4B26C4324128DF8064062
:1088DC00019BDAB262F30700C3F3072262F30F20A5
:1088EC00C3F3074363F3174005B030BD1FB50190C8
:1088FC0010461C46FFF74CFF031900208DF804307E
:10890C00019BDAB262F30700C3F3072262F30F2074
:10891C00C3F3074363F3174004B010BD1FB50190B8
:10892C009DF818001C1A1046FFF732FFE4B2241A07
:10893C0000208DF80440019BDAB262F30700C3F308
:10894C00072262F30F20C3F3074363F3174004B00D
:10895C0010BD84B004B0FFF7B7B90000054B40F66A
:10896C00B8305B791033FF2B28BFFF231B09B0FBFA
:10897C00F3F070477C0E00202DE9F04F354D074683
:10898C0005EB001313F801908846B9F1FF0F85B081
:10899C004FEA00162BD000242F4B09F130091E444E
:1089AC0005EB490146444FF0000AE0B205EB041216
:1089BC0003EB041B019012F801EBBEF1FF0F0CD07E
:1089CC000198874216D15FFA8AF0804512D130782F
:1089DC002030FF2828BFFF2030700AF1010ABAF1BD
:1089EC00100F0BF1010BE6D10134062CDBD105B0D5
:1089FC00BDE8F08F0EF1300E15F81E0015F819C0F9
:108A0C0005EB4E0EACEB000C1FFA8CFC0CFB0CFCBB
:108A1C0048789EF801E00392A0EB0E0000FB00C02A
:108A2C0080B20291FFF760FBDDE9021228280A4BA5
:108A3C00D3D8C0F1280080B2102828BF10209BF892
:108A4C0000C0C0B26044FF2828BFFF208BF8000094
:108A5C00C3E700BF40040020150E00200020704723
:108A6C0070B506460D461446FFF7F8FF044B03EBB2
:108A7C0006135B5DFF2B1EBF23540130C0B270BDCB
:108A8C00400400200148FFF705BB00BF141800206C
:108A9C0007B5009313460A46C1B20348FFF7BEFA66
:108AAC0003B05DF804FB00BF141800202DE9F04F53
:108ABC000478804604EB4404C4EBC404E4B204F12F
:108ACC001506F6B2652EB24628BF4FF0650A2C4B40
:108ADC00DFF8B0B01D889BF8053089B05B085D43AA
:108AEC00294B0391C5F3072503EB440703F595794F
:108AFC00E3B29A4506D8642E8CBF0020012009B041
:108B0C00BDE8F08F19F8042098F801301A4234D0DF
:108B1C0097F8601097F86120703989B201FB01F069
:108B2C00203A92B202FB020080B205910492FFF748
:108B3C00DBFA009503469BF804E0BBF80200049AAC
:108B4C00059912B209B2DDF80CC040EA0E40E047BC
:108B5C00C0F307238DF81C00C0F307408DF81D30BF
:108B6C008DF81E000798FFF7F4FEC0F30743C0F31F
:108B7C000722C1B22046FFF78BFF02370134B7E75B
:108B8C00780E00207C0E0020400400200149FFF7E5
:108B9C008DBF00BF718800080149FFF787BF00BF78
:108BAC00B58800080149FFF781BF00BF4183000869
:108BBC000149FFF77BBF00BF298900082DE9F04F61
:108BCC000478074604EB4404C4EBC404E4B204F197
:108BDC001505EDB2652DAB46894628BF4FF0650BE8
:108BEC00DFF888A0224A9AF8053012885B085343B4
:108BFC0085B0C3F3072301931E4B03EB440603F527
:108C0C009578E3B29B4506D8642D8CBF00200120DB
:108C1C0005B0BDE8F08F18F804207B781A4222D0FA
:108C2C009AF804C096F8612096F86010BAF8020021
:108C3C00203A7039019B40EA0C40C847C0F3072327
:108C4C008DF80C00C0F307408DF80D308DF80E0038
:108C5C000398FFF77EFEC0F30743C0F30722C1B2AF
:108C6C002046FFF715FF02360134CAE77C0E0020C0
:108C7C00780E0020400400200149FFF79FBF00BF81
:108C8C00E58700080149FFF799BF00BF2B88000852
:108C9C000149FFF793BF00BF738300080149FFF739
:108CAC008DBF00BFF98800082DE9F74F0478064600
:108CBC0004EB4404C4EBC404E4B204F115085FFAF9
:108CCC0088F8B8F1650FC2460F4628BF4FF0650A09
:108CDC00DFF874901D4A99F8053015889B0803FB42
:108CEC000555DFF86CB0C5F30725E1B28A4507D806
:108CFC00B8F1640F8CBF0020012003B0BDE8F08FE9
:108D0C001BF8042073781A421CD0B9F8023099F879
:108D1C0004002A4643EA0040B847C0F307238DF805
:108D2C000400C0F307408DF805308DF8060001985B
:108D3C00FFF70FFEC0F30743C0F30722C1B2204672
:108D4C00FFF7A6FE0134D0E77C0E0020780E002041
:108D5C006A0500200149FFF7A7BF00BFB1810008D9
:108D6C000149FFF7A1BF00BF058200080149FFF7C9
:108D7C009BBF00BF598200080149FFF795BF00BF98
:108D8C00818200080149FFF78FBF00BFB582000840
:108D9C000149FFF789BF00BFED8200080149FFF7C9
:108DAC0083BF00BFC58400080149FFF77DBF00BF2A
:108DBC00258500082DE9F04FDFF8B4902D4B99F87C
:108DCC0005501B880478AD085D4304EB4404C4EBE8
:108DDC00C404E4B2C5F3072504F11506F6B2074640
:108DEC0005F1400087B0652EC0B28846B24628BF58
:108DFC004FF0650AFFF7B2F9803843B22846029368
:108E0C00FFF7ACF9803843B2DFF86CB00393E3B2F0
:108E1C009A4506D8642E8CBF0020012007B0BDE80F
:108E2C00F08F1BF804107A7811421ED0DDE9021283
:108E3C00009599F804C0B9F8020040EA0C40C0470C
:108E4C00C0F307238DF81400C0F307408DF81530DC
:108E5C008DF816000598FFF77CFDC0F30743C0F3AF
:108E6C000722C1B22046FFF713FE0134CFE700BF43
:108E7C007C0E0020780E00206A0500200149FFF7C7
:108E8C0099BF00BFC18300080149FFF793BF00BF22
:108E9C00118400080149FFF78DBF00BF61840008F1
:108EAC002DE9F04F0478DFF8D88004EB4404C4EBD0
:108EBC00C404E4B298F8053004F11505EDB20133A1
:108ECC00652DA94628BF4FF06509FF2B28BFFF234E
:108EDC004FF6FF760746B6FBF3F685B0DFF8A4B085
:108EEC00DFF8A4A00191E1B2894506D8642D8CBFAE
:108EFC000020012005B0BDE8F08F1BF804207B7822
:108F0C001A422DD09AF800302048013B5BB21A0669
:108F1C0028D5324698F80510B8F802300131FF29EF
:108F2C0028BFFF21514398F80400C1F30F2143EAF5
:108F3C000040019B9847C0F307238DF80C00C0F349
:108F4C0007408DF80D308DF80E000398FFF701FDEA
:108F5C00C0F30743C0F30722C1B22046FFF798FDC8
:108F6C000134C0E7C25C8A4207D103F10C020AEB60
:108F7C004202B2F80120B242CCD3013BC7E700BF9A
:108F8C007C0E00206A050020EC0D0020FD0D002059
:108F9C000149FFF785BF00BF718500080149FFF744
:108FAC007FBF00BFA38500082DE9F04F0C788246E7
:108FBC0004EB4404C4EBC404E4B204F11505EDB2B3
:108FCC00652D2B4628BF65230F468DB00393404B70
:108FDC0005921B7804933F4B03EB440603F5957302
:108FEC000693039AE3B29A4206D8642D8CBF0020F4
:108FFC0001200DB0BDE8F08F069B1A5D7B781A42FC
:10900C001FD0354BD0461B88DFF8C4B0ADF82830E4
:10901C0000230AEB0B0904995FFA88F2914213D8EA
:10902C002E4A127953431B128DF82A300A98FFF7F7
:10903C0090FCC0F30743C0F30722C1B22046FFF7F0
:10904C0027FD01340236CCE719F8012F96F8601091
:10905C0099F80800891A96F8612089B2121A01FB56
:10906C0001F092B202FB020080B2099308910792C0
:10907C00FFF73AF8194B08F10C0E93F805C00BEBFF
:10908C004E0E0CF1010CBCF1FF0F28BF4FF0FF0C82
:10909C00BEF801E0099B0EFB0CFC079A08998DF8B1
:1090AC002A30CCF30F2C0346CDF800C00A98DDF81B
:1090BC0014C012B209B2E047C0F307238DF829306F
:1090CC008DF82800C0F3074308F10108A3E700BF9F
:1090DC00EC0D0020400400207E0E00207C0E0020B1
:1090EC00044B01461B78044A013B23EAE373D8B2D4
:1090FC00FFF75ABFEC0D0020D78500080146024A45
:10910C000020FFF751BF00BFD7850008044B014674
:10911C001B78044A013B23EAE373D8B2FFF744BF40
:10912C00EC0D00201F8600080146024A0020FFF7C4
:10913C003BBF00BF1F860008044B01461B78044A46
:10914C00013B23EAE373D8B2FFF72EBFEC0D0020EE
:10915C00958600080146024A0020FFF725BF00BF94
:10916C0095860008044B01461B78044A013B23EA10
:10917C00E373D8B2FFF718BFEC0D00200D87000881
:10918C000146024A0020FFF70FBF00BF0D87000801
:10919C00044B01461B78044A013B23EAE373D8B223
:1091AC00FFF702BFEC0D0020598700080146024A68
:1091BC000020FFF7F9BE00BF598700082DE9F341E5
:1091CC0004781D4B04EB4404C4EBC404E4B25A8889
:1091DC00054604F115061879F6B2652E42EA0040F0
:1091EC00374628BF6527FFF7B4FBC0F307238DF87C
:1091FC000530DFF84880C0F307438DF804008DF884
:10920C000630E3B29F4206D8642E8CBF00200120AA
:10921C0002B0BDE8F08118F804206B781A4208D02F
:10922C0020469DF806309DF805209DF80410FFF7A8
:10923C002FFC0134E5E700BF7C0E00206A050020FE
:10924C002DE9F0430478DFF8BC8004EB4404C4EB54
:10925C00C404B8F8022098F80430E4B285B004F1E4
:10926C001505ADF804208DF80630EDB2652D0646D7
:10927C00019898F802902F4628BF6527FFF769FBE5
:10928C00C0F307238DF8093098F805308DF80800E5
:10929C009944C0F307408DF804908DF80A000198AA
:1092AC00FFF757FBC0F307238DF80D30DFF858801C
:1092BC00C0F307438DF80C008DF80E30E3B29F42DB
:1092CC0006D8642D8CBF0020012005B0BDE8F083CA
:1092DC0018F804307278134211D0DB07204643BFD4
:1092EC009DF80E309DF80D209DF80C109DF80A305D
:1092FC005CBF9DF809209DF80810FFF7C9FB0134ED
:10930C00DCE700BF7C0E00206A0500202DE9F74F3A
:10931C000478064604EB4404C4EBC404E4B204F140
:10932C001505EDB2652DAA4628BF4FF0650A194FF9
:10933C00DFF864907A883B7997F80580ADF80020C7
:10934C008DF802304FEA9808A9F1C90BE3B29A459F
:10935C0006D8642D8CBF0020012003B0BDE8F08F2F
:10936C0019F8042073781A4212D01BF81420BB7819
:10937C00120902FB08338DF800300098FFF7E9FA68
:10938C00C0F30743C0F30722C1B22046FFF780FBAE
:10939C000134DBE77C0E00206A0500202DE9F74F35
:1093AC000478064604EB4404C4EBC404E4B204F1B0
:1093BC001505EDB2652DAA4628BF4FF0650A1A4F68
:1093CC00DFF868907A883B7997F80580ADF8002033
:1093DC008DF802304FEA9808A9F1CA0BE3B29A450E
:1093EC0006D8642D8CBF0020012003B0BDE8F08F9F
:1093FC0019F8042073781A4213D01BF81420BB7888
:10940C0008FB02F203EB52138DF800300098FFF7C3
:10941C00A0FAC0F30743C0F30722C1B22046FFF7FE
:10942C0037FB0134DAE700BF7C0E00206A05002010
:10943C002DE9F3412A4B04785A8893F80480ADF84F
:10944C000020284A5B7906461088DB0804EB4404AC
:10945C005843C4EBC404E4B204F11505EDB2652D18
:10946C00C0F307202F4628BF6527FEF777FEA0F133
:10947C0080035BB2002BBCBFC0F1800043B25B0029
:10948C00DBB208FB03F31B128DF802300098FFF7D8
:10949C0060FADFF85480C0F307238DF80400C0F3A2
:1094AC0007408DF805308DF80600E3B29F4206D8D0
:1094BC00642D8CBF0020012002B0BDE8F08118F8AB
:1094CC00042073781A4208D020469DF806309DF887
:1094DC0005209DF80410FFF7DBFA0134E5E700BF27
:1094EC007C0E0020780E00206A05002037B5194B41
:1094FC000446034493F82A31194229D0164BDA78E2
:10950C0099788DF801201A798DF80220FEF714FE57
:10951C004FF4B47201F1B403B3FBF2F502FB153353
:10952C005B1A48BF03339B1000F0030003FB0011D0
:10953C008DF800100098FFF70CFAC0F30743C0F346
:10954C000722C1B2204603B0BDE83040FFF7A0BAF5
:10955C0003B030BD400400207C0E0020F8B5047828
:10956C00837804EB4404C4EBC404E4B204F11506A0
:10957C000546F6B2F3B9154B154A5B7912881033D0
:10958C00FF2B28BFFF2353430A22C3F30F23B3FB44
:10959C00F2F102FB11339BB23BB9FEF7CDFD652313
:1095AC00584369780012FFF7A1FF642E8CBF00208E
:1095BC000120F8BD652E374628BF6527A742F4DD8C
:1095CC0020466978FFF792FF0134F7E77C0E002004
:1095DC00780E002013B5134B0446034493F82A313C
:1095EC0019421CD0FEF7A8FD8DF80000FEF7A4FD73
:1095FC0040F357037F338DF801300B4B1B798DF8FB
:10960C0002300098FFF7A5F9C0F30743C0F3072217
:10961C00C1B2204602B0BDE81040FFF739BA02B023
:10962C0010BD00BF400400207C0E0020F8B58678E9
:10963C000546E6B91B4B1C4A5B7912881033FF2B8D
:10964C0028BFFF2353430522C3F30F23B3FBF2F2CE
:10965C0002EB82029B1A9BB23BB9FEF76DFD6523B0
:10966C00584369780012FFF7B5FF3046F8BD04780F
:10967C0004EB4404C4EBC404E4B204F11506F6B2E2
:10968C00652E374628BF6527A74204DC642E8CBFA5
:10969C0000260126E9E720466978FFF79BFF013495
:1096AC00F2E700BF7C0E0020780E00202DE9F3417C
:1096BC002C4B04781A7959888DF802202A4A93F891
:1096CC0002805B7906461088DB0804EB440458439F
:1096DC00C4EBC404E4B204F11505EDB2652DC0F37E
:1096EC000720ADF800102F4628BF6527FEF736FD82
:1096FC000C22A0F180035BB2002BBCBFC0F1800038
:10970C0043B25B00DBB2534308EB13288DF80080A7
:10971C000098FEF7D9FADFF85480C0F307238DF8D0
:10972C000400C0F307408DF805308DF80600E3B255
:10973C009F4206D8642D8CBF0020012002B0BDE8EA
:10974C00F08118F8042073781A4208D020469DF84E
:10975C0006309DF805209DF80410FFF799F90134A7
:10976C00E5E700BF7C0E0020780E00206A05002083
:10977C0013460A4601460148FEF777BC1418002030
:10978C002DE9F04F047885B004EB4404C4EBC40419
:10979C00E4B204F115095FFA89F94B46652B28BF31
:1097AC0065230193837807464BB10022114610467E
:1097BC00FFF7DEFF602200213B48FAF707FE3B78FB
:1097CC00002B62D00026B046384B06EB030B364B11
:1097DC0006EB030A102300931BF8013BA3423DD375
:1097EC00019A93423AD2314A134493F82A217B7856
:1097FC001A422FD09AF800502D4AA5F1550323EAAE
:10980C00E373C3F1AA038DF80830D37812798DF87D
:10981C00093005F1AA03FF2B28BFFF2303EB4303F9
:10982C000233DBB253431B128DF80A300298FFF758
:10983C0090F8C0F30743C0F30722C1B21BF8010C28
:10984C00FFF726F91B4B1B7823B1013D25EAE57583
:10985C008AF8005008F101085FFA88F8009B0AF1B9
:10986C00010A013B13F0FF030093B5D1502E04D035
:10987C00B8F1140F06F11006A6D9B9F1640F8CBF1C
:10988C000020012005B0BDE8F08F0B4D288800F0BA
:10989C00CDFC18288CBF01220022064B1A7091D9DE
:1098AC0000F0B8FC28808DE7150E00204004002045
:1098BC007C0E0020860E0020880E00202DE9F04F33
:1098CC00534B87B01C79534E04EB44034FEAA30B64
:1098DC009B080193FF23B3FBF4F3009383785BB1F4
:1098EC00002211461046FFF743FF602200214A4830
:1098FC00FAF76CFD002333700025484FDFF818A1F0
:10990C003B7801333B70A4EB0B030293D0464FF032
:10991C00000932785FFA89F31A4362D10393FAF79C
:10992C00AFFD3F4B9842039B5BDC8AF80040294615
:10993C00184604AAFFF794F890B198F80020019B00
:10994C009DF810009A425BD9A2EB0B030BFB03F3BF
:10995C00029A93FBF2F32246DBB21946FFF798F812
:10996C0009F10109B9F1060F08F11008D1D101353F
:10997C00EDB2102D0AF1010AC8D13B78009A93423E
:10998C0004BF00233B7033780133DBB21C2B3DD971
:10999C0000233370234E05233546671E3046294677
:1099AC001022052B04D190F800C0644508BF077045
:1099BC0011F810CC013AA44524BF01F8107C0C70AE
:1099CC0012F0FF0201F1010100F10100E9D1013BAC
:1099DC0013F0FF03A5F11005E0D1002007B0BDE89E
:1099EC00F08F98F80020002AA1D094429FD93978A2
:1099FC000098814204BF02F1FF3288F8002096E7FC
:109A0C006243B2FBFBF20023D2B2A6E73370E4E769
:109A1C007C0E0020850E0020150E0020840E0020E8
:109A2C0054555505650E00202DE9F04F0024384B98
:109A3C0085B00F46154601901C60002A4BD002AA37
:109A4C00FFF70EF80446334E33782344082B22DDFF
:109A5C00C4F10808611C42463144701CFAF7C4FB7F
:109A6C0004F109014246314406F10900FAF7BCFB46
:109A7C0006EB44014FEA4802193106F11900FAF7D6
:109A8C00B3FB04F111014246314406F11100FAF71F
:109A9C00ABFB86F8008000221146914696F800C078
:109AAC00DFF870E0DFF8708002A8D6B20CEB06038A
:109ABC00B442DBB211D811B1164B64441C703DB1E9
:109ACC00164B5B781F2B03D139460198FEF754FFD8
