:020000040800F2
:1070000000500020B9D40008357C0008377C000807
:10701000397C00083B7C00083D7C00080000000033
:107020000000000000000000000000003F7C00089D
:10703000417C000800000000437C0008457C0008FB
:1070400001D5000801D5000801D5000801D50008C8
:1070500001D5000801D5000801D5000801D50008B8
:1070600001D5000801D5000801D5000801D50008A8
:107070004D7C000801D5000801D500085D7C0008A2
:1070800001D5000801D5000801D5000801D5000888
:107090006D7C000801D5000801D5000801D5000865
:1070A00001D5000801D5000801D5000801D5000868
:1070B00001D5000801D500087D7C000801D5000835
:1070C00001D5000801D5000801D50008917C000811
:1070D000A17C000801D5000801D5000801D50008F1
:1070E00001D5000801D5000801D500080000000006
:1070F0000000000000000000000000000000000090
:0C71000000000000000000005FF808F133
:10710C004FF0FF0C1CEAD0521EBF1CEAD15392EA7E
:10711C000C0F93EA0C0F6FD01A4480EA010C40025A
:10712C0018BF5FEA41211ED04FF0006343EA5010B4
:10713C0043EA5111A0FB01310CF00040B1F5000FF6
:10714C003EBF490041EAD3715B0040EA010062F1A5
:10715C007F02FD2A1DD8B3F1004F40EBC25008BF8F
:10716C0020F00100704790F0000F0CF0004C08BFAD
:10717C0049024CEA502040EA51207F3AC2BFD2F17A
:10718C00FF0340EAC250704740F400004FF0000388
:10719C00013A5DDC12F1190FDCBF00F000407047C2
:1071AC00C2F10002410021FA02F1C2F1200200FA00
:1071BC0002FC5FEA310040F1000053EA4C0308BFC7
:1071CC0020EADC70704792F0000F00F0004C02BF18
:1071DC00400010F4000F013AF9D040EA0C0093F093
:1071EC00000F01F0004C02BF490011F4000F013BED
:1071FC00F9D041EA0C018FE70CEAD15392EA0C0F5B
:10720C0018BF93EA0C0F0AD030F0004C18BF31F0C5
:10721C00004CD8D180EA010000F00040704790F09B
:10722C00000F17BF90F0004F084691F0000F91F03F
:10723C00004F14D092EA0C0F01D142020FD193EA05
:10724C000C0F03D14B0218BF084608D180EA01008D
:10725C0000F0004040F0FE4040F40000704740F069
:10726C00FE4040F44000704780F0004002E000BF58
:10727C0081F0004142001FBF5FEA410392EA030F15
:10728C007FEA226C7FEA236C6AD04FEA1262D2EB5F
:10729C001363C1BFD218414048404140B8BF5B4264
:1072AC00192B88BF704710F0004F40F4000020F0FD
:1072BC007F4018BF404211F0004F41F4000121F013
:1072CC007F4118BF494292EA030F3FD0A2F101025D
:1072DC0041FA03FC10EB0C00C3F1200301FA03F19B
:1072EC0000F0004302D5494260EB4000B0F5000FBE
:1072FC0013D3B0F1807F06D340084FEA310102F17D
:10730C000102FE2A51D2B1F1004F40EBC25008BF2E
:10731C0020F0010040EA03007047490040EB0000F8
:10732C00013A28BFB0F5000FEDD2B0FA80FCACF1F9
:10733C00080CB2EB0C0200FA0CF0AABF00EBC25026
:10734C0052421843BCBFD0401843704792F0000F14
:10735C0081F4000106BF80F400000132013BB5E767
:10736C004FEA41037FEA226C18BF7FEA236C21D0DD
:10737C0092EA030F04D092F0000F08BF0846704742
:10738C0090EA010F1CBF0020704712F07F4F04D110
:10739C00400028BF40F00040704712F100723CBF23
:1073AC0000F50000704700F0004343F0FE4040F44D
:1073BC00000070477FEA226216BF08467FEA23630B
:1073CC000146420206BF5FEA412390EA010F40F4F6
:1073DC00800070474FF0000304E000BF10F0004342
:1073EC0048BF40425FEA000C08BF704743F0964329
:1073FC0001464FF000001CE050EA010208BF704744
:10740C004FF000030AE000BF50EA010208BF7047CA
:10741C0011F0004302D5404261EB41015FEA010CDF
:10742C0002BF84460146002043F0B64308BFA3F1D7
:10743C008053A3F50003BCFA8CF2083AA3EBC253B9
:10744C0010DB01FA02FC634400FA02FCC2F12002D8
:10745C00BCF1004F20FA02F243EB020008BF20F00F
:10746C000100704702F1200201FA02FCC2F1200275
:10747C0050EA4C0021FA02F243EB020008BF20EA6A
:10748C00DC7070474FF0FF3C06E000BF4FF0010C82
:10749C0002E000BF4FF0010C4DF804CD4FEA400262
:1074AC004FEA41037FEA226C18BF7FEA236C11D0AC
:1074BC0001B052EA530C18BF90EA010F58BFB2EB5F
:1074CC00030088BFC81738BF6FEAE17018BF40F0DF
:1074DC00010070477FEA226C02D15FEA402C05D193
:1074EC007FEA236CE4D15FEA412CE1D05DF8040B18
:1074FC00704700BF844608466146FFE70FB5FFF7AB
:10750C00C9FF002848BF10F1000F0FBD4DF808ED62
:10751C00FFF7F4FF0CBF012000205DF808FB00BF53
:10752C004DF808EDFFF7EAFF34BF012000205DF8AD
:10753C0008FB00BF4DF808EDFFF7E0FF94BF0120FA
:10754C0000205DF808FB00BF4DF808EDFFF7D2FFF7
:10755C0094BF012000205DF808FB00BF4DF808ED3A
:10756C00FFF7C8FF34BF012000205DF808FB00BF07
:10757C0042000ED2B2F1FE4F0BD34FF09E03B3EB91
:10758C00126209D44FEA002343F0004323FA02F0BD
:10759C0070474FF00000704712F1610F01D14202A9
:1075AC0002D14FF0FF3070474FF00000704700BF22
:1075BC00002301461A46184600F0C0B838B5084BEF
:1075CC00084D5B1B9C1007D0043B1D44013C55F837
:1075DC0004399847002CF9D1BDE8384005F09CBF20
:1075EC00C0D50008BCD5000870B50D4E0D4D761BEE
:1075FC00B61006D0002455F8043B01349847A64237
:10760C00F9D1094E094D05F081FF761BB61006D055
:10761C00002455F8043B01349847A642F9D170BDBB
:10762C00B0D50008B0D50008BCD50008B0D500080E
:10763C00032A10B516D940EA010C1CF0030F0446BE
:10764C000B4622D119462046D1F800E0D0F800C0F4
:10765C000433F44504F1040417D1043A032A2046F8
:10766C001946EFD8541EA2B100F1FF3C013901E0DC
:10767C00C3180CD01CF801EF11F8012FA4EB0C036C
:10768C009645F5D0AEEB020010BD541EECE7184643
:10769C0010BD104610BD00BF830730B548D0541E36
:1076AC00002A3FD00346CAB201E0013C3AD303F8AA
:1076BC00012B9D07F9D1032C2DD9CDB245EA052517
:1076CC000F2C45EA054536D9A4F1100222F00F0C17
:1076DC0003F1200EE6444FEA121C03F1100242E9BA
:1076EC00045542E9025510327245F8D10CF10102F1
:1076FC0014F00C0F03EB021204F00F0C13D0ACF1CE
:10770C00040323F003030433134442F8045B934251
:10771C00FBD10CF003042CB1CAB21C4403F8012BAE
:10772C009C42FBD130BD64461346002CF4D1F9E7E2
:10773C0003461446BFE71A46A446E0E72DE9F84392
:10774C001D4D0646286898460F46914600F042F8B3
:10775C001A4B1B68D3F848411CB3286865681F2D69
:10776C0024DC4EB96B1C0235636044F8257000F0C4
:10777C0039F80020BDE8F883012304EB8501C1F83A
:10778C008890D4F88821AB401A43022EC4F8882183
:10779C00C1F80881E6D1D4F88C211343C4F88C319C
:1077AC00E0E703F5A674C3F84841D6E700F01AF8F1
:1077BC004FF0FF30DEE700BF3004002030D500086A
:1077CC00704700BF704700BF704700BF704700BFD5
:1077DC00704700BF704700BF012070470120704701
:1077EC00704700BF704700BF10B5054C237833B904
:1077FC00044B13B10448AFF300800123237010BD78
:10780C00FD0500200000000018D5000808B5034B4A
:10781C001BB103490348AFF3008008BD0000000012
:10782C000006002018D5000800B583B00E4B5A692D
:10783C0042F001025A615B6903F001030193019B61
:10784C00002203210C2000F087FB0C2000F094FB9D
:10785C00002203210F2000F07FFB0F2000F08CFB97
:10786C0003B05DF804FB00BF001002402DE9F041AD
:10787C0088B000250495059506950795324CA369AB
:10788C0043F02003A361A36903F020030093009B42
:10789C00A36943F00403A361A36903F004030193F8
:1078AC00019BA36943F00803A361A36903F00803D8
:1078BC000293029B254F2A461821384600F000FE01
:1078CC00012604960595069504A9384600F0EAFCB5
:1078DC0018230493059606954FF00208CDF81C80EA
:1078EC0004A9384600F0DEFCA36943F00403A3614D
:1078FC00A36903F004030393039BA4F584342A4681
:10790C004FF48051204600F0DBFD4FF48057049774
:10791C000596CDF81880CDF81C8004A9204600F0FF
:10792C00C1FC2A463946204600F0CAFD412000F031
:10793C00B9FA32463946204600F0C2FD412000F02B
:10794C00B1FA08B0BDE8F08100100240000C014013
:10795C0072B6FEE700B595B0282200210DEB0200AF
:10796C00FFF79AFE00230593069307930893099358
:10797C00019302930393049301220A924FF48033F0
:10798C000B930E920222119212934FF4E013139365
:10799C000AA801F0DDFDC0B90F2305930221069161
:1079AC00002307934FF480620892099305A802F014
:1079BC000FF860B9102301930023049301A802F07F
:1079CC00E3F830B915B05DF804FBFFF7C1FFFFF722
:1079DC00BFFFFFF7BDFF08B501F040FD00F03EFA18
:1079EC00FFF7B8FFFFF742FFFFF71EFF00F00CF8A0
:1079FC0000F060F900F0B6F904F0C8FD00F028F8CA
:107A0C0005F0BAFBFEE7000008B50F480F4B03600A
:107A1C004FF4827343604FF4806383600023C36030
:107A2C000222026143614FF4007282611822C2612A
:107A3C000362436283620A23C36202F0A7F900B9AE
:107A4C0008BDFFF785FFFBE7F8060020003001407A
:107A5C0008B50E480E4B03604FF48273436000234D
:107A6C008360C3600361012242614FF40072826142
:107A7C000822C2610362436283620A23C36202F07A
:107A8C0085F900B908BDFFF763FFFBE7A0060020EE
:107A9C000038004070B588B0044600230493059369
:107AAC00069307930368464A934204D0454A93428F
:107ABC0047D008B070BD444B9A6942F480529A6129
:107ACC009A6902F480520092009A9A6942F0040278
:107ADC009A619B6903F004030193019B2023049397
:107AEC000223059303230793384E04A9304600F074
:107AFC00D9FB4023049300250595069504A930462F
:107B0C0000F0D0FB3248334B036045608560802326
:107B1C00C3600561456185614FF48053C36100F01A
:107B2C0063FA58B92A4BE3645C62002203212320D8
:107B3C0000F012FA232000F01FFABAE7FFF708FF53
:107B4C00F0E7214BDA6942F48042DA61DA6902F437
:107B5C0080420292029A9A6942F008029A619B69E9
:107B6C0003F008030393039B4FF420430493022375
:107B7C0005930323079304A9174800F093FB1748B8
:107B8C00174B036010234360002383608022C26084
:107B9C000361436183614FF48053C36100F024FAA5
:107BAC0058B90E4BA3645C6200220321242000F020
:107BBC00D3F9242000F0E0F97BE7FFF7C9FEF0E7EA
:107BCC000030014000380040001002400008014025
:107BDC005C0600201C000240000C0140180600202E
:107BEC005800024082B00E4B9A6942F001029A6131
:107BFC009A6902F001020092009ADA6942F080520E
:107C0C00DA61DB6903F080530193019B054A5368E9
:107C1C0023F0E06343F00073536002B0704700BF81
:107C2C000010024000000140FEE7FEE7FEE7FEE721
:107C3C00FEE770477047704708B500F021F908BDA2
:107C4C0008B5024800F08CFA08BD00BF5C060020A5
:107C5C0008B5024800F084FA08BD00BF18060020E1
:107C6C0008B5024801F0A9F908BD00BF000D0020BD
:107C7C0008B505F021FB024802F093FA08BD00BFDD
:107C8C005007002008B5024802F09CF908BD00BF5F
:107C9C00F806002008B5024802F094F908BD00BFB0
:107CAC00A0060020014B024A9A60704700ED00E0EC
:107CBC000070000800B587B000230293039304936F
:107CCC000593009301931548154A026047224260C0
:107CDC00836040F2E732C2600361836102F058FBBB
:107CEC0090B94FF48053029302A90C4802F088FB20
:107CFC0068B90023009301936946084802F0EEFB33
:107D0C0040B907B05DF804FBFFF722FEE9E7FFF787
:107D1C001FFEEEE7FFF71CFEF3E700BF5007002045
:107D2C000008004002680E4B9A4200D0704700B524
:107D3C0083B003F50233DA6942F00402DA61DB69DD
:107D4C0003F004030193019B002211461E2000F056
:107D5C0003F91E2000F010F903B05DF804FB00BF1E
:107D6C000008004008B50A480A4B03604FF4E133A1
:107D7C00436000238360C36003610C224261836112
:107D8C00C36102F02DFC00B908BDFFF7E1FDFBE774
:107D9C00980700200038014010B586B000230293EC
:107DAC000393049305930268174B9A4201D006B0D3
:107DBC0010BD03F558439A6942F480429A619A695E
:107DCC0002F480420092009A9A6942F004029A618D
:107DDC009B6903F004030193019B4FF4007302931E
:107DEC000223039303230593084C02A9204600F0B9
:107DFC0059FA4FF48063029300230393049302A96E
:107E0C00204600F04FFAD2E700380140000801404C
:107E1C0010B504460E4B1A784FF47A73B3FBF2F399
:107E2C000C4A1068B0FBF3F000F0B4F868B90F2CF2
:107E3C0001D901200AE0002221464FF0FF3000F06A
:107E4C008BF8054B1C60002000E0012010BD00BF2A
:107E5C0038040020340400203C04002008B5074AF4
:107E6C00136843F010031360032000F063F8002044
:107E7C00FFF7CEFFFFF7B6FE002008BD0020024042
:107E8C00034A1168034B1B780B441360704700BF07
:107E9C00DC07002038040020014B1868704700BF35
:107EAC00DC07002038B50446FFF7F6FF0546B4F1B1
:107EBC00FF3F02D0044B1B781C44FFF7EDFF401B27
:107ECC00A042FAD338BD00BF38040020002808DBDC
:107EDC000901C9B200F1604000F5614080F800135F
:107EEC00704700F00F000901C9B2014B19547047DB
:107EFC0014ED00E000B500F00700C0F1070CBCF178
:107F0C00040F28BF4FF0040C031D062B0FD9C31E02
:107F1C004FF0FF3E0EFA0CF021EA000199400EFAE8
:107F2C0003FE22EA0E0241EA02005DF804FB002384
:107F3C00EEE70000074AD36823F4E0631B041B0C34
:107F4C00000200F4E060034343F0BF6343F40033EA
:107F5C00D360704700ED00E010B50446054BD868BF
:107F6C00C0F30220FFF7C6FF01462046FFF7AEFF25
:107F7C0010BD00BF00ED00E0002807DB00F01F0281
:107F8C00400901239340024A42F82030704700BF59
:107F9C0000E100E00138B0F1807F0BD24FF0E0231C
:107FAC005861054AF02182F82310002098610722BD
:107FBC001A6170470120704700ED00E030B40124D5
:107FCC00056CAC40C56B6C60046863604368102B37
:107FDC0005D0036899600368DA6030BC70470368A9
:107FEC009A600368D960F8E760B310B40246016880
:107FFC00154B0B441548A0FB03031B099B00136492
:10800C00134BD363022382F82130086820F47F508D
:10801C0020F03000536894682343D46823431469D8
:10802C0023435469234394692343D469234303436F
:10803C000B6000209063012382F8213082F820002D
:10804C0010BC704701207047F8FFFDBFCDCCCCCCE5
:10805C000000024038B5044690F82000012831D0C9
:10806C00012084F8200094F82100012804D000237A
:10807C0084F82030022038BD022084F82100002032
:10808C00A0632568286820F0010028602046FFF7CF
:10809C0095FFE36A5BB12268136843F00E0313602B
:1080AC002268136843F0010313600020E3E72268A1
:1080BC00136823F0040313602268136843F00A0367
:1080CC001360EDE70220D6E708B590F82130022BBB
:1080DC0003D004238363012008BD0268136823F0D6
:1080EC000E0313600268136823F001031360036826
:1080FC00194A934214D0143293421FD01432934233
:10810C001ED0143293421ED0143293421ED014321D
:10811C00934202D04FF0807203E04FF4801200E0E3
:10812C0001220E4B5A60012380F82130002380F885
:10813C002030436B6BB198470020CDE71022F0E75D
:10814C004FF48072EDE74FF48052EAE74FF480323F
:10815C00E7E70020C0E700BF080002400000024033
:10816C0038B5C36B1A6804682568016C04238B400E
:10817C00134235D015F0040F32D0236813F0200FC2
:10818C0003D1236823F0040323600368434A93421A
:10819C0014D01432934218D01432934217D01432A4
:1081AC00934217D01432934217D01432934202D018
:1081BC004FF0806203E04FF4800200E00422384B61
:1081CC005A60C36A03B1984738BD4022F7E74FF4B1
:1081DC008062F4E74FF48042F1E74FF48022EEE73F
:1081EC0002238B4013423CD015F0020F39D0236888
:1081FC0013F0200F06D1236823F00A032360012318
:10820C0080F821300368254A934214D014329342EB
:10821C001CD0143293421BD0143293421BD0143214
:10822C0093421BD01432934202D04FF0007203E001
:10823C004FF4001200E00222194B5A60002380F820
:10824C002030836A002BBFD09847BDE72022F3E78C
:10825C004FF40072F0E74FF40052EDE74FF40032A8
:10826C00EAE708238B401342AED015F0080FABD0D1
:10827C00236823F00E032360026CC16B012303FA05
:10828C0002F24A60836380F82130002380F82030AA
:10829C00036B002B98D0984796E700BF080002406C
:1082AC000000024070B582B00024A446A2E07E4DCE
:1082BC00AB4210D007D97D4DAB420CD005F58035C3
:1082CC00AB4208D013E0A5F58015AB4203D005F501
:1082DC007025AB4207D18B68002B55D0012B4ED0AB
:1082EC004261082403E0A5F58015AB42F3D0BEF142
:1082FC00FF0F4BD806464FEA8C0233680F2595408A
:10830C0023EA050304FA02F2134333604B6813F0BB
:10831C00805F6DD0664B9A6942F001029A619B694D
:10832C0003F001030193019B4FEA9C02951C614BE6
:10833C0053F825600CF00305AD000F23AB4026EA83
:10834C0003065D4B984228D003F58063984200F0F9
:10835C008D8003F58063984200F08A8003F580637A
:10836C00984218D0042319E0CC68C0E7CC680434D8
:10837C00BDE7CC680834BAE7CC680C34B7E70261C7
:10838C000824B4E70024B2E70424B0E7061DACF1DE
:10839C0008029200B1E7032300E00023AB40334313
:1083AC000232444D45F822304B6813F4803F61D0C3
:1083BC00424A136843EA0E0313604B6813F4003F00
:1083CC005ED03E4A536843EA0E0353604B6813F485
:1083DC00801F5BD0394A936843EA0E0393604B6865
:1083EC0013F4001F58D0354AD36843EA0E03D36008
:1083FC000CF1010C0B6833FA0CF253D0012202FA87
:10840C000CF203EA020E32EA0303F1D14B68122B91
:10841C003FF64DAF122B3FF66AAF01A555F823F08E
:10842C00E3820008758300087F83000891830008AD
:10843C00FB820008FB820008FB820008FB8200081C
:10844C00FB820008FB820008FB820008FB8200080C
:10845C00FB820008FB820008FB820008FB820008FC
:10846C00FB8200087983000885830008012395E7C7
:10847C00022393E7114A136823EA0E0313609CE767
:10848C000E4A536823EA0E0353609FE70B4A936826
:10849C0023EA0E039360A2E7084AD36823EA0E038B
:1084AC00D360A5E702B070BD0000221000003110AF
:1084BC00001002400000014000080140000401408F
:1084CC000AB10161704709040161704738B512F4B3
:1084DC00804F44D00468B4F850309BB291F800C07F
:1084EC0003EBCC03023304EB4304B4F80044C4F3B1
:1084FC0009048B69A34228D31B1B8B618B697BB945
:10850C00056835F82C309BB223F4804323F07003BC
:10851C0083F4005343F4004343F0800325F82C30DC
:10852C0012F0400F0ED002680D7832F825309BB255
:10853C0023F4E04323F0700343F4004343F0C003FF
:10854C0022F8253024B9204638BD00238B61D5E7AD
:10855C0023460A894969006803F037F8F3E7046891
:10856C00B4F850309BB291F800C003EBCC03063347
:10857C0004EB4304B4F80044C4F309048B69A3422C
:10858C002FD31B1B8B618B697BB9056835F82C309D
:10859C009BB223F4804323F0700383F4005343F421
:1085AC00004343F0800325F82C3012F0400F0FD11C
:1085BC00026891F800C032F82C309BB223F4E043EF
:1085CC0023F0700343F4004343F0C00322F82C3033
:1085DC00002CB8D023464A894969006802F0F5FF9F
:1085EC00B1E700238B61CEE770B586B0002800F0B0
:1085FC008580044690F8A932EBB1032384F8A932A4
:10860C00206802F02CF8254655F8106BEC460FCD7F
:10861C00ACE80F002B68CCF80030231D0ECB304695
:10862C0002F00DF8054658B1022384F8A932012551
:10863C00284606B070BD80F8A83204F07BF8DCE761
:10864C000021206802F015F82B461AE05A1C02EBA8
:10865C00820104EBC1010120487002EB820104F895
:10866C00313003EB830104EBC101CB8602EB820CAE
:10867C0004EBCC0C00208CF803008863C8630864FE
:10868C00D3B261688B42E1D316E005EB850304EBB2
:10869C00C303002283F8692183F8685183F86B21A6
:1086AC00C3F87821C3F87C2105EB850304EBC303E5
:1086BC00C3F880210135EDB2A942E6D8254655F81C
:1086CC00106BEC460FCDACE80F002B68CCF80030EB
:1086DC00231D0ECB304601F0CEFF054620B1022300
:1086EC0084F8A9320125A3E7002384F82430012360
:1086FC0084F8A932206802F0F4FA99E7012597E78B
:10870C0038B590F8A832012B11D00446012580F819
:10871C00A852006801F09AFF2946204604F011F98E
:10872C00206802F0DCFA002084F8A80238BD022090
:10873C00FCE770B505460C46164612F0400F00F0EB
:10874C000D810268B2F850309BB2097803EBC1037B
:10875C00023302EB4302B2F80024C2F30902A3690C
:10876C00934252D99B1AA361A369002B6AD16378F7
:10877C00002B4DD12B68B3F8502092B2134403EB6D
:10878C000113B3F8042492B222F4F84292B2A3F883
:10879C000424B3F804246FEA42426FEA524292B2C4
:1087AC00A3F804242B686278002A3ED1B3F8502039
:1087BC0092B21344227803EB0213B3F80C2492B256
:1087CC0022F4F84292B2A3F80C24B3F80C246FEA0A
:1087DC0042426FEA524292B2A3F80C242178284606
:1087EC0003F0DCFF16F4804F41D02A68217832F870
:1087FC0021309BB223F4E04323F0700343F4404355
:10880C0043F0800322F8213031E00023A361ABE771
:10881C00012BC7D12B68B3F8502092B2134403EB51
:10882C0001130022A3F80424BCE7012AD6D1B3F823
:10883C00502092B21344227803EB02130022A3F8C7
:10884C000C24CBE716F4804F0DD0286830F821307B
:10885C009BB223F4E04323F0700343F4404343F012
:10886C00800320F8213094F82430012B12D02A6890
:10887C00217832F821309BB223F4E04323F04003FB
:10888C0083F0300343F4004343F0800322F821309B
:10889C00002070BD636913446361E3691344E361B1
:1088AC00216A236999421FD3C91A21626278002A6E
:1088BC003FD12A68B2F8501089B20A44217802EBF1
:1088CC000112EBB9B2F8041489B221F4F84189B25F
:1088DC00A2F80414B2F804146FEA41416FEA514152
:1088EC0089B2A2F8041426E021B9002384F82430BC
:1088FC001346DBE7002384F8243023620B46D5E7CC
:10890C003E2B09D8590813F0010F00D00131890210
:10891C0089B2A2F804140EE0590913F01F0F00D10C
:10892C0001396FEAC1616FEA514189B2A2F80414AE
:10893C0001E0012A06D09BB222896169286802F005
:10894C00D8F994E72A68B2F8501089B20A44217811
:10895C0002EB011299B2A2F80414ECE70268B2F827
:10896C0050309BB2097803EBC103063302EB430290
:10897C00B2F80024C2F30902A369934253D39B1AA1
:10898C00A361A369002B6BD16378002B4ED12B68AC
:10899C00B3F8502092B2134403EB0113B3F8042440
:1089AC0092B222F4F84292B2A3F80424B3F804244D
:1089BC006FEA42426FEA524292B2A3F804242B6847
:1089CC006278002A3FD1B3F8502092B21344227837
:1089DC0003EB0213B3F80C2492B222F4F84292B2D5
:1089EC00A3F80C24B3F80C246FEA42426FEA52420B
:1089FC0092B2A3F80C242178284603F0CFFE16F48B
:108A0C00804F7FF434AF2A68217832F821309BB242
:108A1C0023F4E04323F0700343F4404343F080031A
:108A2C0022F8213023E70023A361AAE7012BC6D14A
:108A3C002B68B3F8502092B2134403EB01130022BD
:108A4C00A3F80424BBE7012AD5D1B3F8502092B285
:108A5C001344227803EB02130022A3F80C24CAE778
:108A6C0016F4804F0DD1286830F821309BB223F4D6
:108A7C00E04323F0700343F4404343F0800320F8B9
:108A8C00213094F82430012B7FF4F1AE6369134448
:108A9C006361E3691344E361216A236999421FD33B
:108AAC00C91A21622A68617800293ED1B2F85010A7
:108ABC0089B20A44217802EB0112EBB9B2F80C141A
:108ACC0089B221F4F84189B2A2F80C14B2F80C1452
:108ADC006FEA41416FEA514189B2A2F80C1426E0C9
:108AEC0021B9002384F824301346DBE700232362EA
:108AFC0084F824300B46D5E73E2B09D8590813F0DF
:108B0C00010F00D00131890289B2A2F80C140EE0D9
:108B1C00590913F01F0F00D101396FEAC1616FEAD7
:108B2C00514189B2A2F80C1401E0012906D09BB284
:108B3C0062896169286802F0DCF898E6B2F8501096
:108B4C0089B20A44217802EB011299B2A2F80C14F2
:108B5C00EDE72DE9F04105462868B0F8443013F4F0
:108B6C00004F00F01382B0F84440A3B214F00F048D
:108B7C0040F0D88013F0100F61D003889AB213F430
:108B8C00006F40F0938012F4004FE5D0038823F07F
:108B9C0070031B051B0D43F0800303802868B0F89D
:108BAC0050309BB295F8682103EBC203063300EBFF
:108BBC004303B3F80034C3F30903C5F884318BB114
:108BCC00D5F87C1171B1B5F86E2102F0FEFCD5F828
:108BDC007C31D5F884211344C5F87C31002128461A
:108BEC0003F0D0FD2B681A8812F4006FB4D1B3F8DF
:108BFC00502092B21344D5F87821002A79D1B3F8D9
:108C0C000C2492B222F4F84292B2A3F80C24B3F8DA
:108C1C000C246FEA42426FEA524292B2A3F80C243F
:108C2C002A6813889BB223F4804323F0700383F4E7
:108C3C00405343F4004343F0800313808CE70388D4
:108C4C009BB223F4E14323F070036FEA43436FEAD2
:108C5C0053439BB203802A68B2F850309BB295F80C
:108C6C00281003EBC103023302EB4302B2F80034C9
:108C7C00C3F309036B64EA6B1A44EA6300212846C8
:108C8C0003F08CFD95F82430002B3FF465AF2B6C72
:108C9C00002B7FF461AF95F824302A6843F08003F1
:108CAC00A2F84C30002385F8243055E7B0F850304A
:108CBC009BB295F8682103EBC203063300EB430328
:108CCC00B3F80034C3F30903C5F88431B5F86E2149
:108CDC0005F52C7102F079FC2A68138823F07003D7
:108CEC001B051B0D43F080031380284603F042FD47
:108CFC0032E73E2A09D8510812F0010F00D0013199
:108D0C008A0292B2A3F80C248AE7510912F01F0FC1
:108D1C0000D101396FEAC1626FEA524292B2A3F8F4
:108D2C000C247DE730F824309EB213F4004F4FD161
:108D3C0016F0800F3FF410AF621C02EB820105EBC2
:108D4C00C101286830F824309BB223F4E14323F0AE
:108D5C0070036FEA43436FEA53439BB220F824300D
:108D6C00CB78032B07D033B1022B40F00A8116F4D9
:108D7C00807F40F006812868B0F850309BB2621CAE
:108D8C0002EB820215F8326003EBC603023300EBF0
:108D9C004303B3F80034C3F3090304EB840205EB7B
:108DAC00C202126C9A4240F2D48004EB840705EBA9
:108DBC00C707D21A3A6404EB840205EBC202126CA8
:108DCC00002A40F0CD803146284603F0E7FCC3E68C
:108DDC0030F8243023F070031B051B0D43F0800387
:108DEC0020F8243004EB8401C90001F5B47105EBC3
:108DFC00010804EB840305EBC30393F87431002BD7
:108E0C0042D12868B0F850309BB204EB840205EBD9
:108E1C00C20292F8682103EBC203063300EB430352
:108E2C00B3F80074C7F3090717BB04EB840305EB15
:108E3C00C303D3F884213A44C3F88421D3F87C21AA
:108E4C003A44C3F87C21D3F880313BB104EB840362
:108E5C0005EBC303D3F878319F4275D204EB84033E
:108E6C0005EBC30393F86811284603F08BFC5FE70E
:108E7C0004EB840105EBC1013B46B1F86E21D1F83E
:108E8C007C1102F0A2FBD0E704EB840305EBC303D7
:108E9C0093F86B31022B35D0296804EB840205EB77
:108EAC00C20292F8680131F820309BB223F4E043FF
:108EBC0023F0700343F4004343F0C00321F8203047
:108ECC00286892F8682130F8223013F4804F20D0B3
:108EDC00B0F850309BB203EBC203023300EB4303F8
:108EEC00B3F80074C7F30907002F9ED004EB84017C
:108EFC0005EBC1013B46B1F87021D1F87C1102F0B1
:108F0C0064FB92E7324641462846FFF7DFFA0746F4
:108F1C008BE7B0F850309BB203EBC203063300EB87
:108F2C004303B3F80074C7F30907002F3FF47DAF78
:108F3C0004EB840105EBC1013B46B1F87221D1F879
:108F4C007C1102F042FB70E74146286801F0E4FE18
:108F5C00EEE604EB840205EBC202002717642AE755
:108F6C0004EB840205EBC202D66B1E44D663526C32
:108F7C0004EB840405EBC4041344636401F0CCFEDD
:108F8C00EAE532462846FFF7D4FBE5E50020BDE8CC
:108F9C00F08190F8A832012B0DD010B504460123B6
:108FAC0080F8A83280F82410006801F092FE0020AE
:108FBC0084F8A80210BD0220704710B584B0044696
:108FCC00006801F090FE10F4004F47D1206801F0CA
:108FDC008AFE10F4806F45D1206801F084FE10F4F5
:108FEC00804F08D02268B2F844309BB223F48043FF
:108FFC009BB2A2F84430206801F075FE10F4005FBB
:10900C0008D02268B2F844309BB223F400539BB2D0
:10901C00A2F84430206801F066FE10F4805F32D173
:10902C00206801F060FE10F4006F78D1206801F028
:10903C005AFE10F4007F40F09D80206801F053FE32
:10904C0010F4807F08D02268B2F844309BB223F42D
:10905C0080739BB2A2F8443004B010BD2046FFF7D9
:10906C0078FDB3E72268B2F844309BB223F48063F6
:10907C009BB2A2F84430204603F0A1FB002120460D
:10908C00FFF787FFA8E72268B2F840309BB223F0C5
:10909C0004039BB2A2F840302268B2F840309BB275
:1090AC0023F008039BB2A2F84030204603F0AAFB41
:1090BC002268B2F844309BB223F480539BB2A2F8DE
:1090CC004430ADE7226832F8231004AA02EB4302C5
:1090DC0022F8101C0133DBB2072BF3D92268B2F84B
:1090EC0040309BB243F00103A2F840302268B2F842
:1090FC0040309BB223F001039BB2A2F840302368AE
:10910C00B3F8442012F4806FF9D0B3F8442092B233
:10911C0022F4806292B2A3F8442000230BE00023D7
:10912C00DAE7226804A901EB430131F8101C22F89C
:10913C0023100133DBB2072BF3D92268B2F840308D
:10914C009BB243F00803A2F840302268B2F84430D6
:10915C009BB223F400639BB2A2F844302268B2F8AD
:10916C0040309BB243F00403A2F84030204603F099
:10917C0039FB5BE72268B2F844309BB223F40073EE
:10918C009BB2A2F84430204603F013FB55E710B510
:10919C0004468C4611F0800F2AD101F0070000EB39
:1091AC008001C90001F5B47E04EB0E0100EB8000D8
:1091BC0004EBC0004FF0000E80F869E10CF0070CD6
:1091CC0081F800C00A61CB704A780AB1A1F80EC0D0
:1091DC00022B19D094F8A832012B18D0012384F853
:1091EC00A832206801F058FA002084F8A80210BDBB
:1091FC0001F00700013000EB800104EBC1014FF0DE
:10920C00010E81F801E0D9E700230B71E2E702209F
:10921C00EDE710B504460B4611F0800F1FD101F09D
:10922C00070202EB8201C90001F5B471014402EBA3
:10923C00820200EBC202002082F8690103F00703EE
:10924C000B7094F8A832012B13D0012384F8A832A8
:10925C00206801F0DDFB002084F8A80210BD01F0AD
:10926C000702013202EB820100EBC10101204870C0
:10927C00E4E70220F2E710B501F0070404EB8401E7
:10928C00C90001F5B471014404EB840C00EBCC0C67
:10929C00CCF87C21CCF880310023CCF884318CF8CC
:1092AC0069318CF8684124B9006801F035FD002063
:1092BC0010BD006801F030FDF9E710B501F00704AE
:1092CC0004F1010C0CEB8C0100EBC10104EB840EDE
:1092DC0000EBCE0ECEF83C20CEF8403001228EF8BA
:1092EC004C20CEF848300023CEF844304A700CEBBA
:1092FC008C0C00F83C4024B9006801F00DFD0020F6
:10930C0010BD006801F008FDF9E738B501F007055C
:10931C004268954231D804460B4611F0800F1ED19D
:10932C0001EB8101C90001F5B471014403EB830326
:10933C0000EBC303002283F8692101238B700D70AD
:10934C0094F8A832012B1AD0012384F8A832206893
:10935C0001F049FC5DB1002084F8A80238BD6B1CFB
:10936C0003EB830100EBC10101224A70E5E704F530
:10937C002C71206801F0BBFCEDE70120EEE7022028
:10938C00ECE70B4601F00F014268914230D810B562
:10939C00044613F0800F21D103F0070202EB820187
:1093AC00C90001F5B471014402EB820200EBC20268
:1093BC00002082F8690100228A7003F007030B7009
:1093CC0094F8A832012B15D0012384F8A832206818
:1093DC0001F02EFC002084F8A80210BD03F0070257
:1093EC00013202EB820100EBC10101204870E2E77F
:1093FC00012070470220F0E711F0800F0BD001F034
:10940C000701013101EB810100EBC10052B902737C
:10941C00C3800020704701EB8101C90001F5B471D4
:10942C000844F3E70122027303811B0C4381F0E72C
:10943C0082B0084B1B68084AA2FB03235B0A00FBA3
:10944C0003F3019300BF019B5A1E0192002BF9D12B
:10945C0002B0704734040020D34D621070B5FEF793
:10946C001BFD0446364A136843F001031360344B6A
:10947C001B6813F0020F07D1FEF70EFD001B02282C
:10948C00F5D90324204670BD2D4D2B6823F0F8032D
:10949C0043F080032B60FEF7FFFC044600236B6057
:1094AC00274B5B6813F00C0F08D0FEF7F5FC001B84
:1094BC0041F288339842F3D90324E3E7214B224A43
:1094CC001A60224B1868FEF7A3FC044608B101246D
:1094DC00D8E7FEF7E1FC0546194A136823F08073C0
:1094EC001360174B1B6813F0007F06D0FEF7D4FCFB
:1094FC00401B0228F5D90324C4E7114E00237360E6
:10950C00FEF7CAFC0546336823F4102333600C4B7A
:10951C001B6813F4003F06D0FEF7BEFC401B64280A
:10952C00F5D90324AEE7064B1A6822F480221A60A0
:10953C005A6A42F080725A6200229A60A2E700BF17
:10954C00001002403404002000127A003C04002079
:10955C00002800F0F18170B582B00446036813F066
:10956C00010F2CD0994B5B6803F00C03042B1DD01E
:10957C00964B5B6803F00C03082B12D06368B3F5B1
:10958C00803F41D0002B55D103F1804303F50433C8
:10959C001A6822F480321A601A6822F480221A6047
:1095AC0037E08A4B5B6813F4803FE7D0874B1B682E
:1095BC0013F4003F03D06368002B00F0BF812368D5
:1095CC0013F0020F75D0814B5B6813F00C0F5FD05A
:1095DC007E4B5B6803F00C03082B54D02369002BE3
:1095EC0000F08A807A4B01221A60FEF755FC054682
:1095FC00764B1B6813F0020F75D1FEF74DFC401B28
:10960C000228F5D903209EE1704A136843F4803395
:10961C001360636843B3FEF73FFC05466B4B1B6856
:10962C0013F4003FCBD1FEF737FC401B6428F5D96F
:10963C00032088E1B3F5A02F09D0644B1A6822F4FB
:10964C0080321A601A6822F480221A60E1E703F172
:10965C008043A3F53C331A6842F480221A601A68DE
:10966C0042F480321A60D4E7FEF716FC0546574BDD
:10967C001B6813F4003FA2D0FEF70EFC401B6428BD
:10968C00F5D903205FE1514B5B6813F4803FA5D102
:10969C004E4B1B6813F0020F03D02369012B40F0D3
:1096AC004F814A4A136823F0F803616943EAC10306
:1096BC001360236813F0080F33D0A369002B5CD020
:1096CC00434B0122C3F88024FEF7E6FB05463F4BD3
:1096DC005B6A13F0020F21D1FEF7DEFB401B022860
:1096EC00F5D903202FE1394A136823F0F803616997
:1096FC0043EAC1031360DCE7354B00221A60FEF726
:10970C00CBFB0546314B1B6813F0020FD1D0FEF793
:10971C00C3FB401B0228F5D9032014E10120FFF7FD
:10972C0087FE236813F0040F00F09680274BDB694B
:10973C0013F0805F34D1254BDA6942F08052DA6144
:10974C00DB6903F080530193019B0125214B1B68BE
:10975C0013F4807F26D0E368012B3DD0002B53D12E
:10976C0003F1804303F504331A6A22F001021A62F2
:10977C001A6A22F004021A6233E0154B0022C3F875
:10978C008024FEF789FB0546104B5B6A13F0020F31
:10979C00C7D0FEF781FB401B0228F5D90320D2E08D
:1097AC000025D3E70B4A136843F480731360FEF76C
:1097BC0073FB0646074B1B6813F4807FCBD1FEF777
:1097CC006BFB801B6428F5D90320BCE00010024021
:1097DC0000004242007000405F4A136A43F00103EC
:1097EC001362E36833B3FEF757FB06465A4B1B6A0A
:1097FC0013F0020F2FD1FEF74FFB801B41F2883381
:10980C009842F3D903209EE0052B09D0524B1A6ADB
:10981C0022F001021A621A6A22F004021A62E0E7CC
:10982C004D4B1A6A42F004021A621A6A42F00102A3
:10983C001A62D6E7FEF730FB0646474B1B6A13F05D
:10984C00020F08D0FEF728FB801B41F288339842A8
:10985C00F3D9032077E0E5B9E369002B72D03E4AD7
:10986C00526802F00C02082A56D0022B17D03B4B40
:10987C0000221A66FEF710FB0446374B1B6813F0E8
:10988C00007F47D0FEF708FB001B0228F5D9032008
:10989C0059E0314AD36923F08053D361DCE72F4B75
:1098AC0000221A66FEF7F8FA05462B4B1B6813F0DC
:1098BC00007F06D0FEF7F0FA401B0228F5D90320F2
:1098CC0041E0236AB3F5803F1AD023494B6823F457
:1098DC007413226A606A024313434B601F4B0122CC
:1098EC001A66FEF7D9FA04461B4B1B6813F0007F6F
:1098FC000ED1FEF7D1FA001B0228F5D9032022E085
:10990C00154A536823F40033A1680B435360DCE71A
:10991C00002018E0002016E0012B16D00E4B5B68DF
:10992C0003F48031226A914211D103F47013626AFC
:10993C0093420ED1002006E001207047012002E086
:10994C00012000E0002002B070BD0120FBE70120E7
:10995C00F9E70120F7E700BF001002400000424287
:10996C0086B0174B0FCB0DF1180C0CE90F0040F221
:10997C000123ADF80430134B5B6803F00C02082A8A
:10998C0002D0114806B07047C3F3834218326A44C0
:10999C0012F8100C13F4803F0DD00A4B5B68C3F324
:1099AC00404318336B4413F8143C074A02FB00F095
:1099BC00B0FBF3F0E6E7054B03FB00F0E2E700BF7A
:1099CC004CD500080010024000127A0000093D003E
:1099DC00002800F0A08070B50D460446524B1B6861
:1099EC0003F007038B420BD24F4A136823F0070393
:1099FC000B431360136803F007038B4240F08D8018
:109A0C00236813F0020F17D013F0040F04D0474A49
:109A1C00536843F4E0635360236813F0080F04D0D9
:109A2C00424A536843F460535360404A536823F0EE
:109A3C00F003A1680B435360236813F0010F31D07E
:109A4C006368012B20D0022B25D0384A126812F003
:109A5C00020F64D035494A6822F0030213434B606D
:109A6C00FEF71AFA0646314B5B6803F00C0362688A
:109A7C00B3EB820F16D0FEF70FFA801B41F288333E
:109A8C009842F0D9032045E0284A126812F4003FAE
:109A9C00E0D101203EE0254A126812F0007FD9D1B6
:109AAC00012037E0204B1B6803F00703AB420AD9B7
:109ABC001D4A136823F007032B431360136803F04C
:109ACC000703AB422DD1236813F0040F06D0174ABD
:109ADC00536823F4E063E1680B435360236813F08D
:109AEC00080F07D0114A536823F46053216943EAE5
:109AFC00C1035360FFF734FF0C4B5B68C3F30313D4
:109B0C000B4AD35CD8400B4B18600B4B1868FEF714
:109B1C007FF9002070BD012070470120FAE7012079
:109B2C00F8E70120F6E700BF0020024000100240D9
:109B3C003CD50008340400203C040020014B18687C
:109B4C00704700BF3404002008B5FFF7F7FF044B43
:109B5C005B68C3F30223034AD35CD84008BD00BF43
:109B6C000010024034D5000808B5FFF7E7FF044B9E
:109B7C005B68C3F3C223034AD35CD84008BD00BF63
:109B8C000010024034D5000870B582B0044603685A
:109B9C0013F0010F36D03F4BDB6913F0805F49D1D6
:109BAC003C4BDA6942F08052DA61DB6903F0805396
:109BBC000193019B0125384B1B6813F4807F3BD02C
:109BCC00344B1B6A13F4407313D0626802F4407276
:109BDC009A420ED02F4A136A23F440702F49012663
:109BEC00C1F840640026C1F84064106213F0010F04
:109BFC0036D1284A136A23F4407361680B4313620D
:109C0C00002D3ED1236813F0020F06D0214A536871
:109C1C0023F44043A1680B435360236813F0100FE7
:109C2C0034D01C4A536823F48003E1680B4353601F
:109C3C0000202CE00025BEE7174A136843F480731C
:109C4C001360FEF729F90646134B1B6813F4807F4B
:109C5C00B6D1FEF721F9801B6428F5D9032016E054
:109C6C00FEF71AF906460B4B1B6A13F0020FC0D114
:109C7C00FEF712F9801B41F288339842F3D9032086
:109C8C0005E0D36923F08053D361BBE7002002B019
:109C9C0070BD00BF00100240007000400000424246
:109CAC002DE9F04782B00546884617461E46FEF75A
:109CBC00F3F80A9B1B1A03EB0609FEF7EDF8824634
:109CCC00284B1B68C3F3CB3309FB03F301932B68BD
:109CDC009C6838EA04040CBF01230023BB423DD02E
:109CEC00B6F1FF3FF3D0FEF7D7F8A0EB0A004845DA
:109CFC0007D2019A02B14A46019B013B019391465E
:109D0C00E5E72A68536823F0E00353606B68B3F50A
:109D1C00827F0BD0AB6AB3F5005F14D0012385F8BA
:109D2C005130002385F85030032018E0AB68B3F5B0
:109D3C00004F02D0B3F5806FECD12A68136823F082
:109D4C0040031360E6E72A68136823F4005313609A
:109D5C002A68136843F400531360DFE7002002B055
:109D6C00BDE8F0873404002010B582B004460B46E1
:109D7C00009200228021FFF793FF08B902B010BDBA
:109D8C00636D43F0200363650320F7E7002856D08A
:109D9C0010B50446436A33B94368B3F5827F05D0E6
:109DAC000023C36102E00023036143610023A3622B
:109DBC0094F85130002B3CD0022384F851302268A7
:109DCC00136823F040031360636803F48273A26882
:109DDC0002F404421343E26802F400621343226962
:109DEC0002F002021343626902F001021343A269FA
:109DFC0002F400721343E26902F038021343226A40
:109E0C0002F080021343A26A02F400522168134349
:109E1C000B60638B226803F0040353602268D369E0
:109E2C0023F40063D36100206065012384F8513072
:109E3C0010BD84F850302046FDF72CFEBCE7012005
:109E4C007047000038B590F85030012B61D00446B3
:109E5C00012380F8503090F85150EDB29D4252D110
:109E6C00002951D0002A4FD0032380F85130002311
:109E7C00436501638286C28683634364036483877C
:109E8C00C3878368B3F5004F2AD0A36C224ADA62E9
:109E9C00A36C224A9A62A36C214A1A63A36C002217
:109EAC005A632268E38E9BB20C32216BA06CFEF7D6
:109EBC00D1F80146F8B923681A6812F0400F03D1A3
:109ECC001A6842F040021A602268536843F020037B
:109EDC0053602268536843F0020353600D4613E04D
:109EEC000268136823F0400313600268136843F49C
:109EFC0080431360C9E7636D43F01003636501236E
:109F0C0084F8513000E00225002384F850302846B4
:109F1C0038BD0225FBE700BF339F0008619F000896
:109F2C003F9F0008704708B5406AFFF7FBFF08BD6C
:109F3C00704708B5406A0268536823F00303536006
:109F4C00436D43F010034365012380F85130FFF754
:109F5C00EFFF08BD30B583B00546446AFDF79CFFA2
:109F6C002B681B6813F0200F23D1024621684B6825
:109F7C0023F020034B6021684B6823F002034B60F5
:109F8C0064212046FFF7F0FE18B1636D43F0200307
:109F9C006365A36833B901932368DA6801929B68FF
:109FAC000193019B0023E386012384F85130636DF8
:109FBC0023B9204603F06AFA03B030BD2046FFF700
:109FCC00B7FFF9E710B584B004460268516893688E
:109FDC0003F0410001285AD013F0020F02D011F007
:109FEC00800F5BD113F0600F5BD011F0200F58D0B5
:109FFC0013F0400F0FD094F85100C0B2032852D088
:10A00C00606D40F00400606500200190D068019004
:10A01C0090680190019813F0200F0CD0636D43F001
:10A02C00010363650023039393680393136823F080
:10A03C0040031360039B636D002B32D0226853687E
:10A04C0023F0E0035360012384F8513011F0030F27
:10A05C0031D02268536823F003035360E36C4BB197
:10A06C00174A5A63E06CFEF72FF818B1636D43F092
:10A07C0040036365A36CA3B1114A5A63A06CFEF74D
:10A08C0023F870B1636D43F04003636509E011F090
:10A09C00400FA1D0236C2046984702E0636C204609
:10A0AC00984704B010BD00230293D36802939368C1
:10A0BC000293029BF5E72046FFF73AFFF1E700BF5A
:10A0CC00D1A0000808B5406A0023C387C386FFF7F8
:10A0DC002FFF08BD10B4036A046A24F00104046263
:10A0EC00846924F0F00C4CEA021223F00A030B43AF
:10A0FC008261036210BC704710B4036A23F0100332
:10A10C0003628469036A24F4704C4CEA023223F033
:10A11C00A00343EA01138261036210BC7047836899
:10A12C0023F070030B4343F0070383607047000078
:10A13C0090F83D30DBB2012B27D1022380F83D3063
:10A14C000268D36843F00103D3600368114A934259
:10A15C0010D0B3F1804F0DD0A2F59432934209D0B8
:10A16C0002F58062934205D01A6842F001021A602F
:10A17C00002070479A6802F00702062A07D01A6876
:10A18C0042F001021A600020704701207047002045
:10A19C00704700BF002C01407047704770477047F4
:10A1AC00704710B5044603681A6912F0020F11D0FB
:10A1BC00DA6812F0020F0DD06FF002021A6101235F
:10A1CC00037703689B6913F0030F70D0FFF7E6FF6A
:10A1DC000023237723681A6912F0040F12D0DA686F
:10A1EC0012F0040F0ED06FF004021A6102232377D1
:10A1FC0023689B6913F4407F5FD02046FFF7CEFFA6
:10A20C000023237723681A6912F0080F12D0DA683A
:10A21C0012F0080F0ED06FF008021A610423237796
:10A22C002368DB6913F0030F4ED02046FFF7B6FF0F
:10A23C000023237723681A6912F0100F12D0DA6802
:10A24C0012F0100F0ED06FF010021A610823237752
:10A25C002368DB6913F4407F3DD02046FFF79EFF57
:10A26C000023237723681A6912F0010F03D0DA68F0
:10A27C0012F0010F36D123681A6912F0800F03D047
:10A28C00DA6812F0800F34D123681A6912F0400F8B
:10A29C0003D0DA6812F0400F32D123681A6912F039
:10A2AC00200F03D0DA6812F0200F30D110BDFFF769
:10A2BC0074FF2046FFF773FF8AE72046FFF76DFF18
:10A2CC002046FFF76CFF9BE72046FFF766FF204612
:10A2DC00FFF765FFACE72046FFF75FFF2046FFF76F
:10A2EC005EFFBDE76FF001021A612046FFF754FFD5
:10A2FC00C1E76FF080021A61204600F026F9C3E72F
:10A30C006FF040021A612046FFF74AFFC5E76FF075
:10A31C0020021A61204600F017F9C7E703681B4AB0
:10A32C0090420AD0B0F1804F07D0A2F594329042FF
:10A33C0003D002F58062904203D123F070034A6887
:10A34C001343124A90420AD0B0F1804F07D0A2F5C5
:10A35C009432904203D002F58062904203D123F4F0
:10A36C004073CA68134323F080034A6913430360A4
:10A37C008B68C3620B688362044B984202D0012342
:10A38C00436170470B690363F9E700BF002C014080
:10A39C0040B310B5044690F83D30F3B1022384F875
:10A3AC003D30214651F8040BFFF7B8FF012384F828
:10A3BC00463084F83E3084F83F3084F8403084F8DE
:10A3CC00413084F8423084F8433084F8443084F8C7
:10A3DC00453084F83D30002010BD80F83C30FDF74E
:10A3EC00A1FCDBE70120704710B4846824F47F4C97
:10A3FC0042EA03220A4342EA0C02826010BC704714
:10A40C0090F83C30012B66D010B50446012380F83F
:10A41C003C30022380F83D300268936823F47F437C
:10A42C0023F0770393600B68602B40D022D8402B2D
:10A43C0047D00BD9502B0ED1CA6849680068FFF77A
:10A44C0049FE50212068FFF76AFE04E0202B0CD057
:10A45C0008D9302B09D0012384F83D30002084F832
:10A46C003C0010BD0BB1102BF5D119462068FFF73D
:10A47C0056FEF0E7702B0ED0B3F5005FEBD1CB6836
:10A48C004A6889680068FFF7AFFF2268936843F455
:10A49C0080439360DFE7CB684A6889680068FFF700
:10A4AC00A3FF2268936843F077039360D3E7CA68ED
:10A4BC0049680068FFF720FE60212068FFF72FFE37
:10A4CC00C9E7CA6849680068FFF704FE40212068A4
:10A4DC00FFF725FEBFE702207047000090F83C20F4
:10A4EC00012A2CD010B40346012280F83C20022211
:10A4FC0080F83D2002685068946820F0700C086861
:10A50C0040EA0C0050601A680E4882420AD0B2F140
:10A51C00804F07D0A0F59430824203D000F58060C4
:10A52C00824204D124F080044968214391600122C5
:10A53C0083F83D20002083F83C0010BC70470220BB
:10A54C00704700BF002C01407047704710B504469F
:10A55C000268136923F44053C1680B431361836889
:10A56C000269134342691A430168CB6823F4B05360
:10A57C0023F00C031343CB600268536923F440733C
:10A58C0081690B4353610268134B9A4220D0FFF749
:10A59C00DBFA024602EB820202EB820263689B004A
:10A5AC00B2FBF3F20D48A0FB02314909642303FB13
:10A5BC0011231B013233A0FB03035B0903F0F002F0
:10A5CC0002EB011203F00F03216813448B6010BDE2
:10A5DC00FFF7CAFA0246DDE7003801401F85EB5150
:10A5EC0058B310B5044690F83D300BB3242384F8CF
:10A5FC003D302268D36823F40053D3602046FFF724
:10A60C00A5FF2268136923F49043136122685369F0
:10A61C0023F02A0353612268D36843F40053D360B8
:10A62C0000202064202384F83D3084F83E3010BD97
:10A63C0080F83C30FDF7B0FBD8E70120704784B0C0
:10A64C0001A880E80E00002004B0704703460020EB
:10A65C00A3F844004FF43F42A3F840207047B0F8F1
:10A66C00403023F47C535B045B0CA0F8403000209A
:10A67C0070470020704784B0844601A880E80E0023
:10A68C000123ACF840300020ACF84000ACF844009A
:10A69C00ACF8500004B0704710B5034691F800C0F8
:10A6AC0030F82C2092B222F4EC4222F0700292B2DA
:10A6BC00C878032861D8DFE800F0555C0258002008
:10A6CC0048F2800E42EA0E0223F82C2091F800C0CA
:10A6DC0033F82C2092B222F4E04222F0700242EACB
:10A6EC000C0242EA0E0223F82C200A7B002A40F0CE
:10A6FC00C4804A78002A51D0B3F8502092B21A4440
:10A70C000C7802EB0412B1F806C04FEA5C0C4FEA6D
:10A71C004C0CA2F800C40C7833F8242012F0400F33
:10A72C000CD033F8242092B222F4E04222F07002D2
:10A73C0042F4004242F0C00223F82420CA78012AD5
:10A74C001DD0097833F8212092B222F4E04222F095
:10A75C00400282F0200242F4004242F0800223F8D0
:10A76C0021206AE042F40072AAE742F4C0620020A1
:10A77C00A6E742F480620020A2E70120A0E7097856
:10A78C0033F8212092B222F4E04222F0400242F44B
:10A79C00004242F0800223F821204EE0B3F8502012
:10A7AC0092B21A440C7802EB0412B1F806C04FEACC
:10A7BC005C0C4FEA4C0CA2F808C4B3F8502092B2CF
:10A7CC001A440C7802EB04120C69BCBBB2F80CC432
:10A7DC001FFA8CFC2CF4F84C1FFA8CFCA2F80CC45D
:10A7EC00B2F80CC46FEA4C4C6FEA5C4C1FFA8CFC50
:10A7FC00A2F80CC40C7833F8242012F4804F0CD03F
:10A80C0033F8242092B222F4E04222F0700242F497
:10A81C00404242F0800223F82420097833F82120AA
:10A82C0092B222F4804222F0700282F4405242F43E
:10A83C00004242F0800223F8212010BD3E2C0DD89E
:10A84C004FEA540C14F0010F01D00CF1010C4FEA3B
:10A85C008C2C1FFA8CFCA2F80CC4CBE74FEA541CCE
:10A86C0014F01F0F01D10CF1FF3C6FEACC646FEABE
:10A87C005444A4B2A2F80C44BCE791F800C033F8DD
:10A88C002C2092B222F4E04222F0700242F40142F7
:10A89C0042F0800223F82C20B3F8502092B21A44D4
:10A8AC0091F800C002EB0C12B1F808C04FEA5C0C36
:10A8BC004FEA4C0CA2F800C4B3F8502092B21A44E0
:10A8CC0091F800C002EB0C12B1F80AC04FEA5C0C14
:10A8DC004FEA4C0CA2F808C44A78002A41D10C78F3
:10A8EC0033F8242012F4804F0CD033F8242092B289
:10A8FC0022F4E04222F0700242F4404242F0800224
:10A90C0023F824200C7833F8242012F0400F0CD0BC
:10A91C0033F8242092B222F4E04222F0700242F486
:10A92C00004242F0C00223F8242091F800C033F812
:10A93C002C2092B222F4804222F0700282F4405217
:10A94C0048F28004224323F82C20097833F8212084
:10A95C0092B222F4E04222F04002224323F821205A
:10A96C006BE70C7833F8242012F4804F0CD033F8BA
:10A97C00242092B222F4E04222F0700242F44042CF
:10A98C0042F0800223F824200C7833F8242012F0B3
:10A99C00400F0CD033F8242092B222F4E04222F083
:10A9AC00700242F4004242F0C00223F82420CA781C
:10A9BC00012A1ED00C7833F8242092B222F4E04203
:10A9CC0022F0400282F0200242F4004242F0800267
:10A9DC0023F82420097833F8212092B222F4804203
:10A9EC0022F0700242F4004242F0800223F821204F
:10A9FC0023E70C7833F8242092B222F4E04222F0C0
:10AA0C00400242F4004242F0800223F82420E1E7A5
:10AA1C000B7B002B46D14B7813B30A7830F82230DD
:10AA2C0013F0400F0CD030F822309BB223F4E043EB
:10AA3C0023F0700343F4004343F0C00320F82230AA
:10AA4C000A7830F822309BB223F4E04323F0400321
:10AA5C0043F4004343F0800320F822300020704779
:10AA6C000A7830F8223013F4804F0CD030F82230B2
:10AA7C009BB223F4E04323F0700343F4404343F0D0
:10AA8C00800320F822300A7830F822309BB223F46D
:10AA9C00804323F0700343F4004343F0800320F819
:10AAAC002230DBE74B78002B4ED10A7830F822307D
:10AABC0013F4804F0CD030F822309BB223F4E043D7
:10AACC0023F0700343F4404343F0800320F822301A
:10AADC000A7830F8223013F0400F0CD030F82230C6
:10AAEC009BB223F4E04323F0700343F4004343F0A0
:10AAFC00C00320F822300A7830F822309BB223F4BD
:10AB0C00E04323F0700343F4004343F0C00320F808
:10AB1C0022300A7830F822309BB223F4804323F0A1
:10AB2C00700348F2800C43EA0C0320F822300A78B8
:10AB3C0030F822309BB223F4E04323F0400343EA85
:10AB4C000C0320F8223089E70A7830F8223013F40D
:10AB5C00804F0CD030F822309BB223F4E04323F02A
:10AB6C00700343F4404343F0800320F822300A780A
:10AB7C0030F8223013F0400F0CD030F822309BB25A
:10AB8C0023F4E04323F0700343F4004343F0C00389
:10AB9C0020F822300A7830F822309BB223F4E043BC
:10ABAC0023F0700343F4404343F0800320F8223039
:10ABBC000A7830F822309BB223F4E04323F04003B0
:10ABCC0048F2800C43EA0C0320F822300A7830F863
:10ABDC0022309BB223F4804323F0700343EA0C032E
:10ABEC0020F822303AE74B788BB10A7830F82230D3
:10ABFC009BB223F4E04323F0400383F0100343F4AF
:10AC0C00004343F0800320F82230002070470A787C
:10AC1C0030F822309BB223F4804323F0700383F48A
:10AC2C00805343F4004343F0800320F82230ECE7D8
:10AC3C000B7B002B4BD14B7833B30A7830F8223096
:10AC4C0013F0400F0CD030F822309BB223F4E043C9
:10AC5C0023F0700343F4004343F0C00320F8223088
:10AC6C00CB78012B33D00A7830F822309BB223F406
:10AC7C00E04323F0400383F0200343F4004343F00C
:10AC8C00800320F8223022E00A7830F8223013F4C6
:10AC9C00804F0CD030F822309BB223F4E04323F0E9
:10ACAC00700343F4404343F0800320F822300A78C9
:10ACBC0030F822309BB223F4804323F0700383F4EA
:10ACCC00405343F4004343F0800320F8223000202B
:10ACDC00704711B98023A0F84C3000207047002039
:10ACEC00704700207047B0F8440080B270470020D5
:10ACFC00704701335B0800EB420000F5806008E010
:10AD0C000A7891F801C042EA0C2220F8042B023197
:10AD1C00013B002BF4D1704770B505460C464B78BF
:10AD2C00012B37D00A7B002A40F026838B690A69F5
:10AD3C00934240F204839B1A8B61B5F850309BB25E
:10AD4C002B44217803EB0113002A40F0FC82B3F86A
:10AD5C000C2492B222F4F84292B2A3F80C24B3F869
:10AD6C000C246FEA42426FEA524292B2A3F80C24CE
:10AD7C00227835F822309BB223F4804323F0700301
:10AD8C0083F4405343F4004343F0800325F822300E
:10AD9C00002070BD8E690A69964200D91646237B45
:10ADAC00002B39D0E378022B58D0227835F822309A
:10ADBC009BB223F4E04323F0700343F4014343F0CC
:10ADCC00800325F82230236A9B1B2362237835F8F5
:10ADDC00232012F0400F00F026826278002A40F007
:10ADEC00CA81B5F8502092B22A4402EB0313002E0C
:10ADFC0040F0A881B3F80C2492B222F4F84292B23B
:10AE0C00A3F80C24B3F80C246FEA42426FEA5242C6
:10AE1C0092B2A3F80C24B0E1B6B23346E288616971
:10AE2C002846FFF766FFB5F850309BB22B442278CA
:10AE3C0003EB0213A3F80464227835F822309BB29A
:10AE4C0023F4E04323F0400383F0300343F4004346
:10AE5C0043F0800325F8223000209AE7236A9A42B7
:10AE6C0080F05281227835F822309BB223F4E043F3
:10AE7C0023F0700343F4014343F0800325F82230A0
:10AE8C00236A9B1B2362237835F8232012F0400F92
:10AE9C0000F09D8062788ABBB5F8502092B22A44AB
:10AEAC0002EB03138EB9B3F80C2492B222F4F842DD
:10AEBC0092B2A3F80C24B3F80C246FEA42426FEA66
:10AECC00524292B2A3F80C241AE03E2E09D8720812
:10AEDC0016F0010F00D00132920292B2A3F80C24AA
:10AEEC000EE0720916F01F0F00D1013A6FEAC26230
:10AEFC006FEA524292B2A3F80C2401E0012A2BD043
:10AF0C00B3B2628961692846FFF7F3FE6369334483
:10AF1C006361236A2269934228D99B1B236263785D
:10AF2C00002B40D1B5F850309BB22B44227803EB68
:10AF3C000213FEB9B3F8042492B222F4F84292B28E
:10AF4C00A3F80424B3F804246FEA42426FEA524295
:10AF5C0092B2A3F8042428E0B5F8502092B22A4407
:10AF6C0002EB0313B2B2A3F80C24C9E7002222624D
:10AF7C001E46D4E73E2E09D8720816F0010F00D0F9
:10AF8C000132920292B2A3F804240EE0720916F078
:10AF9C001F0F00D1013A6FEAC2626FEA524292B2BD
:10AFAC00A3F8042401E0012B06D0B3B22289616915
:10AFBC002846FFF79EFE3FE7B5F850309BB22B4476
:10AFCC00227803EB0213B2B2A3F80424EDE7627803
:10AFDC008ABBB5F8502092B22A4402EB03138EB907
:10AFEC00B3F8042492B222F4F84292B2A3F80424E7
:10AFFC00B3F804246FEA42426FEA524292B2A3F8C9
:10B00C0004241AE03E2E09D8720816F0010F00D065
:10B01C000132920292B2A3F804240EE0720916F0E7
:10B02C001F0F00D1013A6FEAC2626FEA524292B22C
:10B03C00A3F8042401E0012A2BD0B3B22289616960
:10B04C002846FFF756FE636933446361236A22691D
:10B05C00934228D99B1B23626378002B40D1B5F80F
:10B06C0050309BB22B44227803EB0213FEB9B3F899
:10B07C000C2492B222F4F84292B2A3F80C24B3F846
:10B08C000C246FEA42426FEA524292B2A3F80C24AB
:10B09C0028E0B5F8502092B22A4402EB0313B2B266
:10B0AC00A3F80424C9E7002222621E46D4E73E2EF0
:10B0BC0009D8720816F0010F00D00132920292B238
:10B0CC00A3F80C240EE0720916F01F0F00D1013A00
:10B0DC006FEAC2626FEA524292B2A3F80C2401E00A
:10B0EC00012B06D0B3B2628961692846FFF701FED5
:10B0FC00A2E6B5F850309BB22B44227803EB021336
:10B10C00B2B2A3F80C24EDE7217835F8212092B2E5
:10B11C0022F4E24222F0700242F4004242F0800239
:10B12C0025F82120B5F8502092B22A44217802EB60
:10B13C0001129BB2A2F80434228961692846FFF7F8
:10B14C00D8FD79E63E2E09D8720816F0010F00D012
:10B15C000132920292B2A3F80C240EE0720916F09E
:10B16C001F0F00D1013A6FEAC2626FEA524292B2EB
:10B17C00A3F80C2401E0012A26D0B3B262896169DC
:10B18C002846FFF7B6FD636933446361236A22697D
:10B19C00934223D99B1B2362002E3FF44DAE637860
:10B1AC006BBBB5F850309BB22B44227803EB0213E7
:10B1BC003E2E17D8720816F0010F00D00132920201
:10B1CC0092B2A3F804241CE0B5F8502092B22A44A1
:10B1DC0002EB0313B2B2A3F80C24CEE700222262D6
:10B1EC001E46D9E7720916F01F0F00D1013A6FEA1B
:10B1FC00C2626FEA524292B2A3F8042401E0012B1E
:10B20C0006D0B3B2228961692846FFF772FD13E6B6
:10B21C00B5F850309BB22B44227803EB0213B2B238
:10B22C00A3F80424EDE762788ABBB5F8502092B2FB
:10B23C002A4402EB03138EB9B3F8042492B222F41D
:10B24C00F84292B2A3F80424B3F804246FEA424201
:10B25C006FEA524292B2A3F804241AE03E2E09D8A7
:10B26C00720816F0010F00D00132920292B2A3F8CC
:10B27C0004240EE0720916F01F0F00D1013A6FEA98
:10B28C00C2626FEA524292B2A3F8042401E0012A8E
:10B29C0026D0B3B2228961692846FFF72AFD63697B
:10B2AC0033446361236A2269934223D99B1B236233
:10B2BC00002E3FF4C1AD63786BBBB5F850309BB238
:10B2CC002B44227803EB02133E2E17D8720816F08B
:10B2DC00010F00D00132920292B2A3F80C241CE0B0
:10B2EC00B5F8502092B22A4402EB0313B2B2A3F881
:10B2FC000424CEE7002222621E46D9E7720916F01A
:10B30C001F0F00D1013A6FEAC2626FEA524292B249
:10B31C00A3F80C2401E0012B06D0B3B26289616959
:10B32C002846FFF7E6FC87E5B5F850309BB22B4476
:10B33C00227803EB0213B2B2A3F80C24EDE700223F
:10B34C008A611A46F9E43E2A09D8510812F0010F15
:10B35C0000D00131890289B2A3F80C1408E5510917
:10B36C0012F01F0F00D101396FEAC1616FEA514130
:10B37C0089B2A3F80C14FBE4CA78022A45D0012A3E
:10B38C0040F0208189692269914240F2D480891A67
:10B39C00A161D3B9B5F850309BB22B44217803EBA3
:10B3AC000113002A40F0CB80B3F8041489B221F4C5
:10B3BC00F84189B2A3F80414B3F804146FEA4141BC
:10B3CC006FEA514189B2A3F804146378002B40F062
:10B3DC00EA80B5F850309BB22B44217803EB011373
:10B3EC00002A40F0C580B3F80C2492B222F4F84243
:10B3FC0092B2A3F80C24B3F80C246FEA42426FEA21
:10B40C00524292B2A3F80C24B2E4CBB9B0F850304B
:10B41C009BB203440A7803EB02130A6972BBB3F8BC
:10B42C00042492B222F4F84292B2A3F80424B3F8A2
:10B43C0004246FEA42426FEA524292B2A3F8042407
:10B44C006378002B4CD1B5F850309BB22B4422784A
:10B45C0003EB0213226952BBB3F80C2492B222F410
:10B46C00F84292B2A3F80C24B3F80C246FEA4242CF
:10B47C006FEA524292B2A3F80C2433E03E2A09D868
:10B48C00510812F0010F00D001318A0292B2A3F8D8
:10B49C000424D5E7510912F01F0F00D101396FEACE
:10B4AC00C1626FEA524292B2A3F80424C8E73E2A62
:10B4BC0009D8510812F0010F00D001318A0292B262
:10B4CC00A3F80C240EE0510912F01F0F00D1013922
:10B4DC006FEAC1626FEA524292B2A3F80C2401E007
:10B4EC00012B1DD0E369002B3FF442AC227835F8D8
:10B4FC00221044F2400303EA01008B4302D00028DF
:10B50C007FF436AC35F822309BB223F4E04323F0C1
:10B51C00700343F4004343F0C00325F8223027E4C2
:10B52C00B5F850309BB22B44227803EB0213228ADD
:10B53C00A3F80C24D6E70022A2610A4629E73E2A8A
:10B54C0009D8510812F0010F00D00131890289B2DB
:10B55C00A3F8041439E7510912F01F0F00D1013977
:10B56C006FEAC1616FEA514189B2A3F804142CE768
:10B57C003E2A0AD8510812F0010F00D001318A027C
:10B58C0092B2A3F80C24FFF7F3BB510912F01F0F72
:10B59C0000D101396FEAC1626FEA524292B2A3F84C
:10B5AC000C24FFF7E5BB012B7FF4E2ABB5F8503070
:10B5BC009BB22B44217803EB011392B2A3F80C2419
:10B5CC00FFF7D6BB0120FFF7E4BB10B45C0800EB1F
:10B5DC00420000F5806007E030F8042B0A70C2F3DB
:10B5EC0007224A700231013C002CF5D113F0010FF7
:10B5FC0001D003880B7010BC7047000000F55E7220
:10B60C004FF0FF33C0F87833C0F87C33C0F8803388
:10B61C001A4B10211961D0F874339A63D0F8743333
:10B62C000C22DA87D0F874331A68136843F040039D
:10B63C001360D0F87423D38F9BB2A3B113689968AD
:10B64C0011F0010FF5D0926B1B7B1370D0F87423A3
:10B65C00936B01339363D0F87423D38F9BB2013B6C
:10B66C009BB2D387E5E71268136823F0400313609D
:10B67C00024B10225A61D0F884037047000C014031
:10B68C0010B50446D0F87803D4F87C23D4F8803372
:10B69C00C4F88803C4F88C23C4F89033002204E067
:10B6AC0000BF0133072BFBDD0132914201D900238E
:10B6BC00F8E72046FFF7A2FF002309E0E21892F812
:10B6CC00881392F878C341EA0C0182F8781301339D
:10B6DC000B2BF3DD10BDF0B586460025C0F8945356
:10B6EC00C0F89853C0F89B532FE0D81D0CE00132E2
:10B6FC0012B2072A20DC2C46174602EBC5033EF992
:10B70C0013301846002BF0DBC0105E4203F0070329
:10B71C0006F0070658BF7342DEF88463365C80205F
:10B72C0040FA03F31E42E2D0744494F89433384147
:10B73C00034384F89433DAE70EEB050292F8943362
:10B74C00DB4382F8943301352DB20A2D01DC002243
:10B75C00CFE70EF29F300024CEF89F43CEF8A343E0
:10B76C00CEF8A743CEF8AB43047437E0DA1D23E0E0
:10B77C00083332460EEB040696F89473802646FA8C
:10B78C000CF6374209D00132724492F89F630127BC
:10B79C0007FA03F3334382F89F330CF1010CBCF12D
:10B7AC00070F1ADC05EB0C03582202FB01333EF9A0
:10B7BC0013301A46002BD9DBD610C2F3CF0201325C
:10B7CC0012B25F4203F0070307F0070758BF7B4232
:10B7DC00002BCDDB642ACDDDDFE70134E500512DF4
:10B7EC0002DC4FF0000CDAE7F0BD90F89D03C0F3DB
:10B7FC00800070472DE9F04383B006460D46019258
:10B80C001F469DF8063013B901238DF8063000242D
:10B81C000CE0E02222E0E02237E0E02305EB4502D9
:10B82C0006EBC202224482F813340134072C44DCA8
:10B83C009DF80500FBF7CEFD3946FBF761FCFBF7E5
:10B84C0097FEC0B296F8039E40FA09F04FF08008BC
:10B85C0048FA04F810EA080FDBD0FE2205EB45038A
:10B86C0006EBC303234483F803249DF80400FBF781
:10B87C00B1FD3946FBF744FCFBF77AFEC0B240FA47
:10B88C0009F018EA000FC6D0FE2205EB450306EBC3
:10B89C00C303234483F80B249DF80600FBF79AFDA1
:10B8AC003946FBF72DFCFBF763FEC2B242FA09F2F4
:10B8BC0018EA020FB1D0FE23B0E703B0BDE8F08365
:10B8CC0010B5044694F87033002BFBD1012384F897
:10B8DC0070334FF41C6204F203410848FEF7B2FACD
:10B8EC0094F87033002BFBD1012384F87033402281
:10B8FC0004F6C3510148FEF7A5FA10BDA0060020BE
:10B90C00012904D0022908D000F29F30704701238E
:10B91C0080F89F3300F29F307047022380F8B033D9
:10B92C0000F56C707047002913DB0B4600291EDBF9
:10B93C00DB1001334A4201F0070102F0070258BF45
:10B94C0051420133184490F89F03084100F0010064
:10B95C0070470B4609DBDB1008314A4201F0070146
:10B96C0002F0070258BF5142EBE7CB1DF3E7CB1DAA
:10B97C00DEE700002923038000487047B004002054
:10B98C002923038000487047840400202923038066
:10B99C000048704758040020D0F8B832002083F8D3
:10B9AC005000704710B5D0F8B842E36C012B01D0B1
:10B9BC00002010BDD0F8BC32DB6861782078984745
:10B9CC000023E364F4E700000A2303800048704777
:10B9DC004004002038B50446D0F8B852284601F08F
:10B9EC005DFD40232A460121204600F09DFF0020EA
:10B9FC0038BD000070B582B0D0F8B8520023ADF855
:10BA0C0006300C7814F060042FD0202C7DD14B78AC
:10BA1C00023B092B25D8DFE803F015092424242444
:10BA2C00241C10058B782B64002471E0012205F195
:10BA3C00400100F069FD00246AE04B881B0A6B642E
:10BA4C00002465E0012205F1440100F05DFD0024B5
:10BA5C005EE00123EB64CA88294600F06AFD0024ED
:10BA6C0056E000F045FA022452E04E780B2E48D8EE
:10BA7C00DFE806F0064747474747154747472E3C40
:10BA8C0090F89C32032B03D000F032FA02243FE0F2
:10BA9C0002220DF1060100F037FD344638E04B88E8
:10BAAC001B0A222B06D0212B0CD000210A4600F0B9
:10BABC002BFD2DE0CA88592A28BF5922D0F8BC3258
:10BACC001968F4E7CA88092A28BF09221249EEE747
:10BADC0090F89C32032B03D000F00AFA022417E0F2
:10BAEC00012205F1480100F00FFD11E090F89C32A5
:10BAFC00032B02D18B78AB640AE000F0F9F9022435
:10BB0C0006E000F0F5F9022402E000F0F1F902245D
:10BB1C00204602B070BD00BF4C04002038B504466E
:10BB2C00812100F0C2FE0025E5620121204600F0D3
:10BB3C00BCFEC4F86C51D4F8B8324BB1D4F8BC325A
:10BB4C009B689847D4F8B80200F0FAFEC4F8B852D3
:10BB5C00002038BD70B5044640230322812100F03B
:10BB6C0099FE0125E562402303222946204600F078
:10BB7C0091FEC4F86C51542000F0DEFEC4F8B802FB
:10BB8C0078B10546002680F85060D4F8BC325B686A
:10BB9C00984740232A460121204600F0C5FE304636
:10BBAC0070BD0120FCE738B5D0F8B85290F89C3243
:10BBBC00032B02D00024204638BD95F850400CB120
:10BBCC000124F8E7012385F8503013460A468121F9
:10BBDC0000F0A2FEEFE719B1C0F8BC1200207047CC
:10BBEC000220704798B108B50346D0F8B40210B1E2
:10BBFC000020C3F8B40209B1C3F8B012012183F8D4
:10BC0C009C121A70184600F003FE002008BD02209A
:10BC1C00704719B1C0F8B412002070470220704769
:10BC2C0008B500F02FFE002008BD08B5D0F8B432DE
:10BC3C002BB11B68984700B908BD0220FCE7022015
:10BC4C00FAE708B5D0F8B4325B689847002008BD15
:10BC5C0038B5044600F52A75284600F035F901235D
:10BC6C00C4F89432B4F8AE32C4F8983294F8A812EE
:10BC7C0001F01F03012B0ED0022B11D02BB101F0C0
:10BC8C008001204600F019FE03E02946204600F012
:10BC9C00C9FA002038BD2946204600F0F7FAF8E72B
:10BCAC002946204600F022FBF3E738B504460D4642
:10BCBC0091BB1346D0F89422032A03D0052A24D032
:10BCCC00084633E0D0F86011D0F8642191420DD9C8
:10BCDC00891AC0F860118A4206D98AB219462046E0
:10BCEC0000F036FC284621E092B2F7E7D0F8B432E7
:10BCFC001B691BB190F89C22032A04D0204600F04B
:10BD0C002FFC284612E09847F8E70021C0F894125F
:10BD1C0000F0D3FD284609E0D0F8B4329B6933B16A
:10BD2C0090F89C22032A04D19847002038BD0220A9
:10BD3C00FCE70220FAE738B504460D46002953D13A
:10BD4C001346D0F89422022A0CD0042A00D01AB937
:10BD5C008021204600F0B1FD94F8A032012B3ED09A
:10BD6C00284638BD026A416A8A421BD8C269B2FBB6
:10BD7C00F1F301FB13232BB9914203D8D0F898327D
:10BD8C009A421CD3D4F8B432DB681BB194F89C22D1
:10BD9C00032A21D08021204600F08FFD204600F0A0
:10BDAC00EAFBD9E7521A026292B2194600F0B9FBCB
:10BDBC0000231A461946204600F0B6FDCCE70022B7
:10BDCC00114600F0AEFB0021C4F898120B460A464F
:10BDDC00204600F0A9FDBFE720469847DAE700238C
:10BDEC0084F8A0322846BCE7D0F8B4325B6933B192
:10BDFC0090F89C22032A04D198470020B1E7022036
:10BE0C00AFE70220ADE770B504464023002211468F
:10BE1C0000F040FD0125C4F858514026C4F8646177
:10BE2C00334600228021204600F034FDA561666275
:10BE3C0084F89C520023C4F894326360C4F8A43292
:10BE4C00D4F8B8322BB1D4F8B4325B680021204658
:10BE5C009847002070BD01740020704790F89C3208
:10BE6C0080F89D32042380F89C320020704790F8B3
:10BE7C009C32042B01D00020704790F89D3280F842
:10BE8C009C32F8E708B590F89C32032B01D00020C7
:10BE9C0008BDD0F8B432DB69002BF8D09847F6E730
:10BEAC000346002002E00130C0B201331A78002AA8
:10BEBC00F9D1704708B54B88012B00D008BDC0F8EC
:10BECC00A43200F04DFBF9E70B7803704B7843700C
:10BEDC008B78CA7803EB022343800B794A7903EB06
:10BEEC00022383808B79CA7903EB0223C3807047CA
:10BEFC0010B50446802100F0E0FC0021204600F043
:10BF0C00DCFC10BD30B583B005460C460023ADF803
:10BF1C0006304A88130A013B062B00F2A480DFE8A6
:10BF2C0003F004182CA2A2869300D0F8B0321B6840
:10BF3C000DF10601007C9847BDF806201AB1E38884
:10BF4C00002B40F09480E388002B00F09A8003B023
:10BF5C0030BD037C43B9D0F8B4329B6A0DF10600B6
:10BF6C00984702234370E7E7D0F8B432DB6A0DF14F
:10BF7C000600984702234370DEE7D2B2052A52D856
:10BF8C00DFE802F003101D2A3744D0F8B0325B68AA
:10BF9C0023B10DF10601007C9847CDE72146FFF750
:10BFAC00A7FFD4E7D0F8B0329B6823B10DF106019E
:10BFBC00007C9847C0E72146FFF79AFFC7E7D0F807
:10BFCC00B032DB6823B10DF10601007C9847B3E772
:10BFDC002146FFF78DFFBAE7D0F8B0321B6923B1C9
:10BFEC000DF10601007C9847A6E72146FFF780FF7C
:10BFFC00ADE7D0F8B0325B6923B10DF10601007CDE
:10C00C00984799E72146FFF773FFA0E7D0F8B032C5
:10C01C009B6923B10DF10601007C98478CE7214602
:10C02C00FFF766FF93E72146FFF762FF8FE7037C7C
:10C03C0033B9D0F8B4325B6B0DF1060098477BE74F
:10C04C002146FFF755FF82E7037C43B9D0F8B432A1
:10C05C001B6B0DF106009847072343706CE72146D4
:10C06C00FFF746FF73E72146FFF742FF6FE79A425F
:10C07C0028BF1A46ADF806200146284600F044FABF
:10C08C0061E7284600F06CFA61E738B504468B8806
:10C09C00F3B9CB88E3B94B887F2B19D803F07F0514
:10C0AC0090F89C32032B0CD080F89E52294600F05D
:10C0BC002BFC204600F054FA35B1022384F89C3254
:10C0CC0009E0FFF715FF06E0012384F89C3202E03B
:10C0DC002046FFF70DFF38BD38B504460D4689786C
:10C0EC00284B197001290ED890F89C32022B0ED0D7
:10C0FC00032B21D02946FFF7FBFE224B1978204653
:10C10C00FFF79FFD02E02946FFF7F2FE38BD81B133
:10C11C004160032380F89C32FFF787FD022803D08F
:10C12C00204600F01DFAF1E729462046FFF7E0FE15
:10C13C00ECE700F015FAE9E789B1436899421DD0A4
:10C14C00D9B2FFF77EFD0F4B197861602046FFF7DF
:10C15C006CFD02280DD0204600F002FAD6E702232F
:10C16C0080F89C324160FFF76CFD204600F0F8F936
:10C17C00CCE729462046FFF7BBFEC7E700F0F0F9F5
:10C18C00C4E700BFE007002008B5CB88012B0AD11B
:10C19C0090F89C32022B09D9032B09D10122011DE5
:10C1AC0000F0B2F901E0FFF7A3FE08BD5BB213B9D2
:10C1BC00FFF79EFEF9E70146002341F8083F0122F4
:10C1CC0000F0A2F9F1E708B590F89C32013B022B84
:10C1DC0012D8CB88022B0CD10123C360D0F8A43227
:10C1EC000BB10323C360022200F10C0100F08CF9A7
:10C1FC0008BDFFF77DFEFBE7FFF77AFEF8E708B511
:10C20C0090F89C32013B022B09D84B88012B00D0B3
:10C21C0008BD0023C0F8A43200F0A2F9F8E7FFF73C
:10C22C0067FEF5E708B50B7803F06003202B05D00B
:10C23C00402B03D043B1FFF75BFE03E0D0F8B432E0
:10C24C009B689847002008BD4B78092B1BD8DFE86A
:10C25C0003F011171A141A08051A0E0BFFF752FEE9
:10C26C00F0E7FFF712FFEDE7FFF736FFEAE7FFF71E
:10C27C008BFFE7E7FFF7A7FFE4E7FFF71BFEE1E71C
:10C28C00FFF7BDFFDEE7FFF733FEDBE738B505460A
:10C29C000C460B7803F06003202B06D0402B04D007
:10C2AC001BB1FFF725FE002038BD95F89C32013BF1
:10C2BC00022B16D82379012B0ED8D5F8B4329B68F3
:10C2CC00214628469847E388002BECD10028EAD178
:10C2DC00284600F045F9E6E721462846FFF708FE18
:10C2EC00E1E721462846FFF703FEDCE770B505467B
:10C2FC008B880C7804F06004202C07D0DAB2402C28
:10C30C0004D05CB1FFF7F4FD002405E0D5F8B4329D
:10C31C009B68284698470024204670BD202C09D0E5
:10C32C004E78012E33D0032E0AD0002E55D0FFF7B5
:10C33C00DFFDF1E7D0F8B4329B6898470446EBE791
:10C34C0090F89C32022B04D0032B11D0FFF7D0FDB8
:10C35C00E2E70AB1802A03D12846FFF7C9FDDBE7E3
:10C36C00114600F0AAFA8021284600F0A6FAD3E77D
:10C37C004B8823B91AB1802A01D0CB881BB128462F
:10C38C0000F0EEF8C8E7114600F097FAF7E790F8DE
:10C39C009C32022B04D0032B11D0FFF7A9FDBBE775
:10C3AC000AB1802A03D12846FFF7A2FDB4E7114653
:10C3BC0000F083FA8021284600F07FFAACE74B8826
:10C3CC00002BA9D112F07F0F03D1284600F0C8F83A
:10C3DC00A2E7114600F079FAF7E790F89C020228E0
:10C3EC0006D0032829D02846FFF782FD344693E770
:10C3FC000AB1802A13D113F0800F15D102F07F02FD
:10C40C0002EB8202910001F5A8712944043100234A
:10C41C000B600222284600F077F834467CE7284669
:10C42C00FFF766FD344677E702F07F0202EB8202EB
:10C43C009100103129440431E9E75BB2002B1FDB7A
:10C44C0002F00F0000EB800005EB8000D0F85801E3
:10C45C0020B3002B27DB02F07F0303EB83039C004C
:10C46C0004F5A8742C4404340AB1802A24D1002386
:10C47C00236002222146284600F046F834464BE75A
:10C48C0002F00F0000EB800005EB800080690028B3
:10C49C00DFD12846FFF72CFD34463DE72846FFF751
:10C4AC0027FD344638E702F07F0303EB83039C003F
:10C4BC0010342C440434D7E71146284600F00DFA0A
:10C4CC0010B101232360D4E700232360D1E7D0B15E
:10C4DC0070B50D4616460446FFF7E2FC431C5B00A4
:10C4EC009BB233802B7003236B70022307E0013463
:10C4FC005A1CD2B2E8540233DBB20021A954207882
:10C50C000028F4D170BD704708B513460222C0F85C
:10C51C009422C36103620A46002100F0FDF9002059
:10C52C0008BD08B513460A46002100F0F5F90020B5
:10C53C0008BD08B513460322C0F89422C0F85C313C
:10C54C00C0F860310A46002100F0EEF9002008BD69
:10C55C0008B513460A46002100F0E6F9002008BD94
:10C56C0008B50423C0F8943200231A46194600F08B
:10C57C00D3F9002008BD08B50523C0F89432002378
:10C58C001A46194600F0D0F9002008BD08B5002263
:10C59C000F491048FFF726FB70B90F490D48FFF7FC
:10C5AC0038FB60B90D490B48FFF715FB50B909482A
:10C5BC00FFF736FB48B908BDFBF7CAF9EDE7FBF707
:10C5CC00C7F9EFE7FBF7C4F9F1E7FBF7C1F9F2E7BD
:10C5DC00B4050020E4070020DC0400201405002032
:10C5EC0000207047002070470020704712230B80FA
:10C5FC0000487047A005002004230B8000487047BA
:10C60C009C050020002393421ED200B510E00CF1D3
:10C61C00370C01F813C000014FEA430C0CF1010C6C
:10C62C004FF0000E01F80CE00133DBB2934209D25B
:10C63C004FEA107CB0F1204FE9D20CF1300C01F82C
:10C64C0013C0E8E75DF804FB7047000038B50B4BEE
:10C65C00D3F8E807D3F8EC47D3F8F037C01800D17B
:10C66C0038BD074D08222946FFF7CCFF042205F1FF
:10C67C0010012046FFF7C6FFF2E700BF00F0FF1FD6
:10C68C008205002008B51A230B80FFF7DFFF014855
:10C69C0008BD00BF8005002008B50A4628B9054929
:10C6AC000548FFF714FF034808BD02490248FFF78D
:10C6BC000EFFF8E7A80A002060D5000810B50A465E
:10C6CC00034C21460348FFF702FF204610BD00BF74
:10C6DC00A80A00207CD5000808B50A4628B90549E7
:10C6EC000548FFF7F4FE034808BD02490248FFF76E
:10C6FC00EEFEF8E7A80A002084D5000808B50A4623
:10C70C0028B905490548FFF7E2FE034808BD024970
:10C71C000248FFF7DCFEF8E7A80A002098D50008CD
:10C72C00022805D8DFE800F005040200012070475C
:10C73C000220704702680E4B9A4200D0704700B539
:10C74C0083B003F5DA33DA6942F40002DA61DB69AB
:10C75C0003F400030193019B002211461420FBF704
:10C76C00FBFB1420FBF708FC03B05DF804FB00BFD7
:10C77C00005C004008B500F52C71D0F8E802FFF71A
:10C78C0067FA08BD08B501EB810300EBC303D3F8CE
:10C79C007C21D0F8E802FFF788FA08BD08B501EB58
:10C7AC00810300EBC303DA6BD0F8E802FFF7C3FA9E
:10C7BC0008BD08B5D0F8E802FFF764FB08BD10B55A
:10C7CC0004468368022B09D10121D4F8E802FFF753
:10C7DC0042FBD4F8E802FFF716FB10BDFBF7B8F8E4
:10C7EC00F2E7000010B50446D0F8E802FFF736FB7C
:10C7FC00A36923B1024A136943F00603136110BD08
:10C80C0000ED00E008B5D0F8E802FFF730FB08BDFA
:10C81C0010B504461948C0F8E842C4F8C002184BD9
:10C82C000360082343600223836000238361C36198
:10C83C000362FBF7D9FEE8B9182300221146D4F89D
:10C84C00C002FCF7D9FD582300228021D4F8C00285
:10C85C00FCF7D2FD982300228121D4F8C002FCF70A
:10C86C00CBFDD82300220121D4F8C002FCF7C4FD73
:10C87C00002010BDFBF76CF8DEE700BF000D0020B8
:10C88C00005C004008B5D0F8C002FBF739FFFFF799
:10C89C0047FF08BD08B594461A466346D0F8C00257
:10C8AC00FCF775FCFFF73CFF08BD08B5D0F8C002DB
:10C8BC00FCF7AFFCFFF734FF08BD08B5D0F8C00299
:10C8CC00FCF723FDFFF72CFF08BD08B5D0F8C0021C
:10C8DC00FCF757FDFFF724FF08BDD0F8C03211F06C
:10C8EC00800F08D101F07F0101EB810103EBC10343
:10C8FC0093F86A01704701F07F01013101EB81016E
:10C90C0003EBC1039878704708B5D0F8C002FCF768
:10C91C0040FBFFF705FF08BD08B5D0F8C002FCF7D7
:10C92C00CCFCFFF7FDFE08BD08B5D0F8C002FCF743
:10C93C00A2FCFFF7F5FE08BD00487047A80C0020CC
:10C94C00704770472DE9F04F85B0044601914FF4C4
:10C95C005C720021FAF7A0FE4FF0430323804FF0E6
:10C96C003D0BA4F802B04FF03C03A3804FF03A0209
:10C97C00E2804FF03B0020814FF0340565814FF091
:10C98C003706A6814FF033073846E7814FF0320760
:10C99C0027824FF0310767824FF0300CA4F814C097
:10C9AC004FF02F0EA4F816E04FF02E08A4F81880C4
:10C9BC00032363834FF05009A4F81C904FF0510AE5
:10C9CC00A4F81EA0402727844FF0390161844FF052
:10C9DC003E05A5844FF03F06E6844FF0350CA4F8D5
:10C9EC0028C04FF0360EA4F82AE04FF02D08A4F81A
:10C9FC002C804FF02C09A4F82E904FF0280AA4F8A4
:10CA0C0030A04FF01F0161864FF01A05A5864FF03C
:10CA1C001206E6864FF0020CA4F838C04FF0130C47
:10CA2C00A4F83AC04623A3874723E3874FF0420E6E
:10CA3C00A4F840E04FF0410EA4F842E04FF0380863
:10CA4C00A4F844804FF02409A4F846904FF0250A2E
:10CA5C00A4F848A04FF02601A4F84A104FF027057F
:10CA6C00A4F84C504FF02B06A4F84E604FF02A0C53
:10CA7C00A4F850C04FF0290EA4F852E04FF01C0857
:10CA8C00A4F854804FF00F09A4F858904FF04A0ABC
:10CA9C00A4F85AA04FF0490AA4F85CA04FF0480142
:10CAAC00A4F85E104FF04405A4F860504FF0450513
:10CABC00A4F862504FF01D06A4F864604FF01E0CF1
:10CACC00A4F866C04FF0230EA4F868E04FF02208DB
